{
  "_format": "hh-sol-artifact-1",
  "contractName": "OpenFormat",
  "sourceName": "contracts/OpenFormat.sol",
  "abi": [
    {
      "inputs": [
        {
          "internalType": "string",
          "name": "name_",
          "type": "string"
        },
        {
          "internalType": "string",
          "name": "symbol_",
          "type": "string"
        },
        {
          "internalType": "string",
          "name": "metadataURI_",
          "type": "string"
        },
        {
          "internalType": "uint256",
          "name": "maxSupply_",
          "type": "uint256"
        },
        {
          "internalType": "uint256",
          "name": "mintingPrice_",
          "type": "uint256"
        }
      ],
      "stateMutability": "nonpayable",
      "type": "constructor"
    },
    {
      "anonymous": false,
      "inputs": [
        {
          "indexed": true,
          "internalType": "address",
          "name": "owner",
          "type": "address"
        },
        {
          "indexed": true,
          "internalType": "address",
          "name": "approved",
          "type": "address"
        },
        {
          "indexed": true,
          "internalType": "uint256",
          "name": "tokenId",
          "type": "uint256"
        }
      ],
      "name": "Approval",
      "type": "event"
    },
    {
      "anonymous": false,
      "inputs": [
        {
          "indexed": true,
          "internalType": "address",
          "name": "owner",
          "type": "address"
        },
        {
          "indexed": true,
          "internalType": "address",
          "name": "operator",
          "type": "address"
        },
        {
          "indexed": false,
          "internalType": "bool",
          "name": "approved",
          "type": "bool"
        }
      ],
      "name": "ApprovalForAll",
      "type": "event"
    },
    {
      "anonymous": false,
      "inputs": [
        {
          "indexed": true,
          "internalType": "address",
          "name": "contractAddress",
          "type": "address"
        }
      ],
      "name": "ApprovedDepositExtensionSet",
      "type": "event"
    },
    {
      "anonymous": false,
      "inputs": [
        {
          "indexed": true,
          "internalType": "address",
          "name": "contractAddresss",
          "type": "address"
        }
      ],
      "name": "ApprovedMintingExtensionSet",
      "type": "event"
    },
    {
      "anonymous": false,
      "inputs": [
        {
          "indexed": true,
          "internalType": "address",
          "name": "contractAddress",
          "type": "address"
        }
      ],
      "name": "ApprovedRoyaltyExtensionSet",
      "type": "event"
    },
    {
      "anonymous": false,
      "inputs": [
        {
          "indexed": true,
          "internalType": "string",
          "name": "commissionType",
          "type": "string"
        },
        {
          "indexed": true,
          "internalType": "address",
          "name": "to",
          "type": "address"
        },
        {
          "indexed": false,
          "internalType": "uint256",
          "name": "tokenId",
          "type": "uint256"
        },
        {
          "indexed": false,
          "internalType": "uint256",
          "name": "amount",
          "type": "uint256"
        }
      ],
      "name": "CommissionPaid",
      "type": "event"
    },
    {
      "anonymous": false,
      "inputs": [
        {
          "indexed": true,
          "internalType": "address",
          "name": "creator",
          "type": "address"
        },
        {
          "indexed": false,
          "internalType": "string",
          "name": "metadataURI",
          "type": "string"
        },
        {
          "indexed": false,
          "internalType": "string",
          "name": "symbol",
          "type": "string"
        },
        {
          "indexed": false,
          "internalType": "string",
          "name": "name",
          "type": "string"
        },
        {
          "indexed": false,
          "internalType": "uint256",
          "name": "maxSupply",
          "type": "uint256"
        },
        {
          "indexed": false,
          "internalType": "uint256",
          "name": "mintingPrice",
          "type": "uint256"
        }
      ],
      "name": "Created",
      "type": "event"
    },
    {
      "anonymous": false,
      "inputs": [
        {
          "indexed": true,
          "internalType": "contract IERC20",
          "name": "token",
          "type": "address"
        },
        {
          "indexed": false,
          "internalType": "address",
          "name": "to",
          "type": "address"
        },
        {
          "indexed": false,
          "internalType": "uint256",
          "name": "amount",
          "type": "uint256"
        }
      ],
      "name": "ERC20PaymentReleased",
      "type": "event"
    },
    {
      "anonymous": false,
      "inputs": [
        {
          "indexed": false,
          "internalType": "contract IERC20",
          "name": "token",
          "type": "address"
        },
        {
          "indexed": true,
          "internalType": "uint256",
          "name": "tokenId",
          "type": "uint256"
        },
        {
          "indexed": true,
          "internalType": "uint256",
          "name": "amount",
          "type": "uint256"
        }
      ],
      "name": "ERC20TokenBalanceWithdrawn",
      "type": "event"
    },
    {
      "anonymous": false,
      "inputs": [
        {
          "indexed": true,
          "internalType": "contract IERC20",
          "name": "token",
          "type": "address"
        },
        {
          "indexed": true,
          "internalType": "uint256",
          "name": "amount",
          "type": "uint256"
        }
      ],
      "name": "ERC20TotalDepositedAmountUpdated",
      "type": "event"
    },
    {
      "anonymous": false,
      "inputs": [
        {
          "indexed": true,
          "internalType": "uint256",
          "name": "amount",
          "type": "uint256"
        }
      ],
      "name": "MaxSupplySet",
      "type": "event"
    },
    {
      "anonymous": false,
      "inputs": [
        {
          "indexed": true,
          "internalType": "uint256",
          "name": "newTokenId",
          "type": "uint256"
        },
        {
          "indexed": true,
          "internalType": "address",
          "name": "owner",
          "type": "address"
        }
      ],
      "name": "Minted",
      "type": "event"
    },
    {
      "anonymous": false,
      "inputs": [
        {
          "indexed": true,
          "internalType": "uint256",
          "name": "amount",
          "type": "uint256"
        }
      ],
      "name": "MintingPriceSet",
      "type": "event"
    },
    {
      "anonymous": false,
      "inputs": [
        {
          "indexed": true,
          "internalType": "address",
          "name": "previousOwner",
          "type": "address"
        },
        {
          "indexed": true,
          "internalType": "address",
          "name": "newOwner",
          "type": "address"
        }
      ],
      "name": "OwnershipTransferred",
      "type": "event"
    },
    {
      "anonymous": false,
      "inputs": [
        {
          "indexed": false,
          "internalType": "bool",
          "name": "isPaused",
          "type": "bool"
        }
      ],
      "name": "PausedStateSet",
      "type": "event"
    },
    {
      "anonymous": false,
      "inputs": [
        {
          "indexed": false,
          "internalType": "address",
          "name": "account",
          "type": "address"
        },
        {
          "indexed": false,
          "internalType": "uint256",
          "name": "shares",
          "type": "uint256"
        }
      ],
      "name": "PayeeAdded",
      "type": "event"
    },
    {
      "anonymous": false,
      "inputs": [
        {
          "indexed": false,
          "internalType": "address",
          "name": "account",
          "type": "address"
        },
        {
          "indexed": false,
          "internalType": "uint256",
          "name": "shares",
          "type": "uint256"
        }
      ],
      "name": "PayeeRemoved",
      "type": "event"
    },
    {
      "anonymous": false,
      "inputs": [
        {
          "indexed": false,
          "internalType": "address",
          "name": "from",
          "type": "address"
        },
        {
          "indexed": false,
          "internalType": "uint256",
          "name": "amount",
          "type": "uint256"
        }
      ],
      "name": "PaymentReceived",
      "type": "event"
    },
    {
      "anonymous": false,
      "inputs": [
        {
          "indexed": false,
          "internalType": "address",
          "name": "to",
          "type": "address"
        },
        {
          "indexed": false,
          "internalType": "uint256",
          "name": "amount",
          "type": "uint256"
        }
      ],
      "name": "PaymentReleased",
      "type": "event"
    },
    {
      "anonymous": false,
      "inputs": [
        {
          "indexed": true,
          "internalType": "uint256",
          "name": "amount",
          "type": "uint256"
        }
      ],
      "name": "PrimaryCommissionSet",
      "type": "event"
    },
    {
      "anonymous": false,
      "inputs": [
        {
          "indexed": true,
          "internalType": "address",
          "name": "receiver",
          "type": "address"
        },
        {
          "indexed": true,
          "internalType": "uint256",
          "name": "percentage",
          "type": "uint256"
        }
      ],
      "name": "RoyaltiesSet",
      "type": "event"
    },
    {
      "anonymous": false,
      "inputs": [
        {
          "indexed": true,
          "internalType": "address",
          "name": "recipient",
          "type": "address"
        },
        {
          "indexed": true,
          "internalType": "uint256",
          "name": "amount",
          "type": "uint256"
        }
      ],
      "name": "RoyaltyPaid",
      "type": "event"
    },
    {
      "anonymous": false,
      "inputs": [
        {
          "indexed": true,
          "internalType": "uint256",
          "name": "tokenId",
          "type": "uint256"
        },
        {
          "indexed": false,
          "internalType": "uint256",
          "name": "salePrice",
          "type": "uint256"
        }
      ],
      "name": "SalePriceSet",
      "type": "event"
    },
    {
      "anonymous": false,
      "inputs": [
        {
          "indexed": true,
          "internalType": "uint256",
          "name": "amount",
          "type": "uint256"
        }
      ],
      "name": "SecondaryCommissionSet",
      "type": "event"
    },
    {
      "anonymous": false,
      "inputs": [
        {
          "indexed": false,
          "internalType": "bool",
          "name": "state",
          "type": "bool"
        }
      ],
      "name": "ShareIncomeWithHoldersSet",
      "type": "event"
    },
    {
      "anonymous": false,
      "inputs": [
        {
          "indexed": false,
          "internalType": "address",
          "name": "from",
          "type": "address"
        },
        {
          "indexed": false,
          "internalType": "address",
          "name": "to",
          "type": "address"
        },
        {
          "indexed": false,
          "internalType": "uint256",
          "name": "amount",
          "type": "uint256"
        }
      ],
      "name": "SharesAllocated",
      "type": "event"
    },
    {
      "anonymous": false,
      "inputs": [
        {
          "indexed": true,
          "internalType": "uint256",
          "name": "tokenId",
          "type": "uint256"
        },
        {
          "indexed": true,
          "internalType": "address",
          "name": "oldOwner",
          "type": "address"
        },
        {
          "indexed": true,
          "internalType": "address",
          "name": "newOwner",
          "type": "address"
        },
        {
          "indexed": false,
          "internalType": "uint256",
          "name": "salePrice",
          "type": "uint256"
        }
      ],
      "name": "Sold",
      "type": "event"
    },
    {
      "anonymous": false,
      "inputs": [
        {
          "indexed": true,
          "internalType": "uint256",
          "name": "tokenId",
          "type": "uint256"
        },
        {
          "indexed": true,
          "internalType": "uint256",
          "name": "amount",
          "type": "uint256"
        }
      ],
      "name": "TokenBalanceWithdrawn",
      "type": "event"
    },
    {
      "anonymous": false,
      "inputs": [
        {
          "indexed": true,
          "internalType": "uint256",
          "name": "amount",
          "type": "uint256"
        }
      ],
      "name": "TotalDepositedAmountUpdated",
      "type": "event"
    },
    {
      "anonymous": false,
      "inputs": [
        {
          "indexed": true,
          "internalType": "address",
          "name": "from",
          "type": "address"
        },
        {
          "indexed": true,
          "internalType": "address",
          "name": "to",
          "type": "address"
        },
        {
          "indexed": true,
          "internalType": "uint256",
          "name": "tokenId",
          "type": "uint256"
        }
      ],
      "name": "Transfer",
      "type": "event"
    },
    {
      "inputs": [
        {
          "internalType": "address",
          "name": "",
          "type": "address"
        }
      ],
      "name": "_shares",
      "outputs": [
        {
          "internalType": "uint256",
          "name": "",
          "type": "uint256"
        }
      ],
      "stateMutability": "view",
      "type": "function"
    },
    {
      "inputs": [
        {
          "internalType": "address[]",
          "name": "accounts",
          "type": "address[]"
        },
        {
          "internalType": "uint256[]",
          "name": "shares_",
          "type": "uint256[]"
        }
      ],
      "name": "allocateShares",
      "outputs": [],
      "stateMutability": "nonpayable",
      "type": "function"
    },
    {
      "inputs": [
        {
          "internalType": "address",
          "name": "to",
          "type": "address"
        },
        {
          "internalType": "uint256",
          "name": "tokenId",
          "type": "uint256"
        }
      ],
      "name": "approve",
      "outputs": [],
      "stateMutability": "nonpayable",
      "type": "function"
    },
    {
      "inputs": [],
      "name": "approvedDepositExtension",
      "outputs": [
        {
          "internalType": "address",
          "name": "",
          "type": "address"
        }
      ],
      "stateMutability": "view",
      "type": "function"
    },
    {
      "inputs": [],
      "name": "approvedMintingExtension",
      "outputs": [
        {
          "internalType": "address",
          "name": "",
          "type": "address"
        }
      ],
      "stateMutability": "view",
      "type": "function"
    },
    {
      "inputs": [
        {
          "internalType": "address",
          "name": "owner",
          "type": "address"
        }
      ],
      "name": "balanceOf",
      "outputs": [
        {
          "internalType": "uint256",
          "name": "",
          "type": "uint256"
        }
      ],
      "stateMutability": "view",
      "type": "function"
    },
    {
      "inputs": [
        {
          "internalType": "uint256",
          "name": "tokenId",
          "type": "uint256"
        }
      ],
      "name": "burn",
      "outputs": [],
      "stateMutability": "nonpayable",
      "type": "function"
    },
    {
      "inputs": [
        {
          "internalType": "uint256",
          "name": "tokenId",
          "type": "uint256"
        },
        {
          "internalType": "address",
          "name": "commissionAddress",
          "type": "address"
        }
      ],
      "name": "buy",
      "outputs": [
        {
          "internalType": "bool",
          "name": "",
          "type": "bool"
        }
      ],
      "stateMutability": "payable",
      "type": "function"
    },
    {
      "inputs": [
        {
          "internalType": "uint256",
          "name": "tokenId",
          "type": "uint256"
        }
      ],
      "name": "buy",
      "outputs": [
        {
          "internalType": "bool",
          "name": "",
          "type": "bool"
        }
      ],
      "stateMutability": "payable",
      "type": "function"
    },
    {
      "inputs": [
        {
          "internalType": "uint256",
          "name": "tokenId",
          "type": "uint256"
        }
      ],
      "name": "creatorOf",
      "outputs": [
        {
          "internalType": "address",
          "name": "",
          "type": "address"
        }
      ],
      "stateMutability": "view",
      "type": "function"
    },
    {
      "inputs": [
        {
          "internalType": "contract IERC20",
          "name": "token",
          "type": "address"
        },
        {
          "internalType": "uint256",
          "name": "amount",
          "type": "uint256"
        }
      ],
      "name": "deposit",
      "outputs": [],
      "stateMutability": "payable",
      "type": "function"
    },
    {
      "inputs": [],
      "name": "deposit",
      "outputs": [],
      "stateMutability": "payable",
      "type": "function"
    },
    {
      "inputs": [
        {
          "internalType": "uint256",
          "name": "tokenId",
          "type": "uint256"
        }
      ],
      "name": "getApproved",
      "outputs": [
        {
          "internalType": "address",
          "name": "",
          "type": "address"
        }
      ],
      "stateMutability": "view",
      "type": "function"
    },
    {
      "inputs": [],
      "name": "getMaxSupply",
      "outputs": [
        {
          "internalType": "uint256",
          "name": "",
          "type": "uint256"
        }
      ],
      "stateMutability": "view",
      "type": "function"
    },
    {
      "inputs": [],
      "name": "getOwner",
      "outputs": [
        {
          "internalType": "address",
          "name": "",
          "type": "address"
        }
      ],
      "stateMutability": "view",
      "type": "function"
    },
    {
      "inputs": [],
      "name": "getPrimaryCommissionPct",
      "outputs": [
        {
          "internalType": "uint256",
          "name": "",
          "type": "uint256"
        }
      ],
      "stateMutability": "view",
      "type": "function"
    },
    {
      "inputs": [],
      "name": "getSecondaryCommissionPct",
      "outputs": [
        {
          "internalType": "uint256",
          "name": "",
          "type": "uint256"
        }
      ],
      "stateMutability": "view",
      "type": "function"
    },
    {
      "inputs": [
        {
          "internalType": "uint256",
          "name": "tokenId",
          "type": "uint256"
        }
      ],
      "name": "getSingleTokenBalance",
      "outputs": [
        {
          "internalType": "uint256",
          "name": "tokenBalance",
          "type": "uint256"
        }
      ],
      "stateMutability": "view",
      "type": "function"
    },
    {
      "inputs": [
        {
          "internalType": "contract IERC20",
          "name": "token",
          "type": "address"
        },
        {
          "internalType": "uint256",
          "name": "tokenId",
          "type": "uint256"
        }
      ],
      "name": "getSingleTokenBalance",
      "outputs": [
        {
          "internalType": "uint256",
          "name": "tokenBalance",
          "type": "uint256"
        }
      ],
      "stateMutability": "view",
      "type": "function"
    },
    {
      "inputs": [
        {
          "internalType": "uint256",
          "name": "tokenId",
          "type": "uint256"
        }
      ],
      "name": "getTokenSalePrice",
      "outputs": [
        {
          "internalType": "uint256",
          "name": "",
          "type": "uint256"
        }
      ],
      "stateMutability": "view",
      "type": "function"
    },
    {
      "inputs": [],
      "name": "getTotalSupply",
      "outputs": [
        {
          "internalType": "uint256",
          "name": "",
          "type": "uint256"
        }
      ],
      "stateMutability": "view",
      "type": "function"
    },
    {
      "inputs": [
        {
          "internalType": "address",
          "name": "owner",
          "type": "address"
        },
        {
          "internalType": "address",
          "name": "operator",
          "type": "address"
        }
      ],
      "name": "isApprovedForAll",
      "outputs": [
        {
          "internalType": "bool",
          "name": "",
          "type": "bool"
        }
      ],
      "stateMutability": "view",
      "type": "function"
    },
    {
      "inputs": [],
      "name": "metadataURI",
      "outputs": [
        {
          "internalType": "string",
          "name": "",
          "type": "string"
        }
      ],
      "stateMutability": "view",
      "type": "function"
    },
    {
      "inputs": [],
      "name": "mint",
      "outputs": [
        {
          "internalType": "uint256",
          "name": "newTokenId",
          "type": "uint256"
        }
      ],
      "stateMutability": "payable",
      "type": "function"
    },
    {
      "inputs": [
        {
          "internalType": "address",
          "name": "commissionAddress",
          "type": "address"
        }
      ],
      "name": "mint",
      "outputs": [
        {
          "internalType": "uint256",
          "name": "newTokenId",
          "type": "uint256"
        }
      ],
      "stateMutability": "payable",
      "type": "function"
    },
    {
      "inputs": [],
      "name": "mintingPrice",
      "outputs": [
        {
          "internalType": "uint256",
          "name": "",
          "type": "uint256"
        }
      ],
      "stateMutability": "view",
      "type": "function"
    },
    {
      "inputs": [],
      "name": "name",
      "outputs": [
        {
          "internalType": "string",
          "name": "",
          "type": "string"
        }
      ],
      "stateMutability": "view",
      "type": "function"
    },
    {
      "inputs": [],
      "name": "owner",
      "outputs": [
        {
          "internalType": "address",
          "name": "",
          "type": "address"
        }
      ],
      "stateMutability": "view",
      "type": "function"
    },
    {
      "inputs": [
        {
          "internalType": "uint256",
          "name": "tokenId",
          "type": "uint256"
        }
      ],
      "name": "ownerOf",
      "outputs": [
        {
          "internalType": "address",
          "name": "",
          "type": "address"
        }
      ],
      "stateMutability": "view",
      "type": "function"
    },
    {
      "inputs": [],
      "name": "paused",
      "outputs": [
        {
          "internalType": "bool",
          "name": "",
          "type": "bool"
        }
      ],
      "stateMutability": "view",
      "type": "function"
    },
    {
      "inputs": [
        {
          "internalType": "uint256",
          "name": "index",
          "type": "uint256"
        }
      ],
      "name": "payee",
      "outputs": [
        {
          "internalType": "address",
          "name": "",
          "type": "address"
        }
      ],
      "stateMutability": "view",
      "type": "function"
    },
    {
      "inputs": [],
      "name": "primaryCommissionPct",
      "outputs": [
        {
          "internalType": "uint256",
          "name": "",
          "type": "uint256"
        }
      ],
      "stateMutability": "view",
      "type": "function"
    },
    {
      "inputs": [
        {
          "internalType": "address payable",
          "name": "account",
          "type": "address"
        }
      ],
      "name": "release",
      "outputs": [],
      "stateMutability": "nonpayable",
      "type": "function"
    },
    {
      "inputs": [
        {
          "internalType": "contract IERC20",
          "name": "token",
          "type": "address"
        },
        {
          "internalType": "address",
          "name": "account",
          "type": "address"
        }
      ],
      "name": "release",
      "outputs": [],
      "stateMutability": "nonpayable",
      "type": "function"
    },
    {
      "inputs": [
        {
          "internalType": "contract IERC20",
          "name": "token",
          "type": "address"
        },
        {
          "internalType": "address",
          "name": "account",
          "type": "address"
        }
      ],
      "name": "released",
      "outputs": [
        {
          "internalType": "uint256",
          "name": "",
          "type": "uint256"
        }
      ],
      "stateMutability": "view",
      "type": "function"
    },
    {
      "inputs": [
        {
          "internalType": "address",
          "name": "account",
          "type": "address"
        }
      ],
      "name": "released",
      "outputs": [
        {
          "internalType": "uint256",
          "name": "",
          "type": "uint256"
        }
      ],
      "stateMutability": "view",
      "type": "function"
    },
    {
      "inputs": [],
      "name": "renounceOwnership",
      "outputs": [],
      "stateMutability": "nonpayable",
      "type": "function"
    },
    {
      "inputs": [
        {
          "internalType": "uint256",
          "name": "",
          "type": "uint256"
        },
        {
          "internalType": "uint256",
          "name": "value",
          "type": "uint256"
        }
      ],
      "name": "royaltyInfo",
      "outputs": [
        {
          "internalType": "address",
          "name": "receiver",
          "type": "address"
        },
        {
          "internalType": "uint256",
          "name": "royaltyAmount",
          "type": "uint256"
        }
      ],
      "stateMutability": "view",
      "type": "function"
    },
    {
      "inputs": [
        {
          "internalType": "address",
          "name": "from",
          "type": "address"
        },
        {
          "internalType": "address",
          "name": "to",
          "type": "address"
        },
        {
          "internalType": "uint256",
          "name": "tokenId",
          "type": "uint256"
        }
      ],
      "name": "safeTransferFrom",
      "outputs": [],
      "stateMutability": "nonpayable",
      "type": "function"
    },
    {
      "inputs": [
        {
          "internalType": "address",
          "name": "from",
          "type": "address"
        },
        {
          "internalType": "address",
          "name": "to",
          "type": "address"
        },
        {
          "internalType": "uint256",
          "name": "tokenId",
          "type": "uint256"
        },
        {
          "internalType": "bytes",
          "name": "_data",
          "type": "bytes"
        }
      ],
      "name": "safeTransferFrom",
      "outputs": [],
      "stateMutability": "nonpayable",
      "type": "function"
    },
    {
      "inputs": [],
      "name": "secondaryCommissionPct",
      "outputs": [
        {
          "internalType": "uint256",
          "name": "",
          "type": "uint256"
        }
      ],
      "stateMutability": "view",
      "type": "function"
    },
    {
      "inputs": [
        {
          "internalType": "address",
          "name": "operator",
          "type": "address"
        },
        {
          "internalType": "bool",
          "name": "approved",
          "type": "bool"
        }
      ],
      "name": "setApprovalForAll",
      "outputs": [],
      "stateMutability": "nonpayable",
      "type": "function"
    },
    {
      "inputs": [
        {
          "internalType": "address",
          "name": "contractAddress",
          "type": "address"
        },
        {
          "internalType": "uint256",
          "name": "holderPct",
          "type": "uint256"
        }
      ],
      "name": "setApprovedDepositExtension",
      "outputs": [],
      "stateMutability": "nonpayable",
      "type": "function"
    },
    {
      "inputs": [
        {
          "internalType": "address",
          "name": "contractAddress",
          "type": "address"
        }
      ],
      "name": "setApprovedMintingExtension",
      "outputs": [],
      "stateMutability": "nonpayable",
      "type": "function"
    },
    {
      "inputs": [
        {
          "internalType": "uint256",
          "name": "amount",
          "type": "uint256"
        }
      ],
      "name": "setMaxSupply",
      "outputs": [],
      "stateMutability": "nonpayable",
      "type": "function"
    },
    {
      "inputs": [
        {
          "internalType": "uint256",
          "name": "amount",
          "type": "uint256"
        }
      ],
      "name": "setMintingPrice",
      "outputs": [],
      "stateMutability": "nonpayable",
      "type": "function"
    },
    {
      "inputs": [
        {
          "internalType": "uint256",
          "name": "amount",
          "type": "uint256"
        }
      ],
      "name": "setPrimaryCommissionPct",
      "outputs": [],
      "stateMutability": "nonpayable",
      "type": "function"
    },
    {
      "inputs": [
        {
          "internalType": "address",
          "name": "royaltyReceiver",
          "type": "address"
        },
        {
          "internalType": "uint256",
          "name": "royaltiesPct",
          "type": "uint256"
        }
      ],
      "name": "setRoyalties",
      "outputs": [],
      "stateMutability": "nonpayable",
      "type": "function"
    },
    {
      "inputs": [
        {
          "internalType": "uint256",
          "name": "amount",
          "type": "uint256"
        }
      ],
      "name": "setSecondaryCommissionPct",
      "outputs": [],
      "stateMutability": "nonpayable",
      "type": "function"
    },
    {
      "inputs": [
        {
          "internalType": "bool",
          "name": "state",
          "type": "bool"
        }
      ],
      "name": "setShareIncomeWithHolders",
      "outputs": [],
      "stateMutability": "nonpayable",
      "type": "function"
    },
    {
      "inputs": [
        {
          "internalType": "uint256",
          "name": "tokenId",
          "type": "uint256"
        },
        {
          "internalType": "uint256",
          "name": "salePrice",
          "type": "uint256"
        }
      ],
      "name": "setTokenSalePrice",
      "outputs": [],
      "stateMutability": "nonpayable",
      "type": "function"
    },
    {
      "inputs": [],
      "name": "shareIncomeWithHolders",
      "outputs": [
        {
          "internalType": "bool",
          "name": "",
          "type": "bool"
        }
      ],
      "stateMutability": "view",
      "type": "function"
    },
    {
      "inputs": [
        {
          "internalType": "address",
          "name": "account",
          "type": "address"
        }
      ],
      "name": "shares",
      "outputs": [
        {
          "internalType": "uint256",
          "name": "",
          "type": "uint256"
        }
      ],
      "stateMutability": "view",
      "type": "function"
    },
    {
      "inputs": [
        {
          "internalType": "bytes4",
          "name": "interfaceId",
          "type": "bytes4"
        }
      ],
      "name": "supportsInterface",
      "outputs": [
        {
          "internalType": "bool",
          "name": "",
          "type": "bool"
        }
      ],
      "stateMutability": "view",
      "type": "function"
    },
    {
      "inputs": [],
      "name": "symbol",
      "outputs": [
        {
          "internalType": "string",
          "name": "",
          "type": "string"
        }
      ],
      "stateMutability": "view",
      "type": "function"
    },
    {
      "inputs": [],
      "name": "togglePausedState",
      "outputs": [],
      "stateMutability": "nonpayable",
      "type": "function"
    },
    {
      "inputs": [
        {
          "internalType": "uint256",
          "name": "index",
          "type": "uint256"
        }
      ],
      "name": "tokenByIndex",
      "outputs": [
        {
          "internalType": "uint256",
          "name": "",
          "type": "uint256"
        }
      ],
      "stateMutability": "view",
      "type": "function"
    },
    {
      "inputs": [
        {
          "internalType": "address",
          "name": "owner",
          "type": "address"
        },
        {
          "internalType": "uint256",
          "name": "index",
          "type": "uint256"
        }
      ],
      "name": "tokenOfOwnerByIndex",
      "outputs": [
        {
          "internalType": "uint256",
          "name": "",
          "type": "uint256"
        }
      ],
      "stateMutability": "view",
      "type": "function"
    },
    {
      "inputs": [
        {
          "internalType": "uint256",
          "name": "tokenId",
          "type": "uint256"
        }
      ],
      "name": "tokenURI",
      "outputs": [
        {
          "internalType": "string",
          "name": "",
          "type": "string"
        }
      ],
      "stateMutability": "view",
      "type": "function"
    },
    {
      "inputs": [],
      "name": "totalDepositedAmount",
      "outputs": [
        {
          "internalType": "uint256",
          "name": "",
          "type": "uint256"
        }
      ],
      "stateMutability": "view",
      "type": "function"
    },
    {
      "inputs": [],
      "name": "totalDepositedReleased",
      "outputs": [
        {
          "internalType": "uint256",
          "name": "",
          "type": "uint256"
        }
      ],
      "stateMutability": "view",
      "type": "function"
    },
    {
      "inputs": [
        {
          "internalType": "contract IERC20",
          "name": "token",
          "type": "address"
        }
      ],
      "name": "totalReleased",
      "outputs": [
        {
          "internalType": "uint256",
          "name": "",
          "type": "uint256"
        }
      ],
      "stateMutability": "view",
      "type": "function"
    },
    {
      "inputs": [],
      "name": "totalReleased",
      "outputs": [
        {
          "internalType": "uint256",
          "name": "",
          "type": "uint256"
        }
      ],
      "stateMutability": "view",
      "type": "function"
    },
    {
      "inputs": [],
      "name": "totalSupply",
      "outputs": [
        {
          "internalType": "uint256",
          "name": "",
          "type": "uint256"
        }
      ],
      "stateMutability": "view",
      "type": "function"
    },
    {
      "inputs": [
        {
          "internalType": "address",
          "name": "from",
          "type": "address"
        },
        {
          "internalType": "address",
          "name": "to",
          "type": "address"
        },
        {
          "internalType": "uint256",
          "name": "tokenId",
          "type": "uint256"
        }
      ],
      "name": "transferFrom",
      "outputs": [],
      "stateMutability": "nonpayable",
      "type": "function"
    },
    {
      "inputs": [
        {
          "internalType": "address",
          "name": "newOwner",
          "type": "address"
        }
      ],
      "name": "transferOwnership",
      "outputs": [],
      "stateMutability": "nonpayable",
      "type": "function"
    },
    {
      "inputs": [
        {
          "internalType": "uint256",
          "name": "tokenId",
          "type": "uint256"
        }
      ],
      "name": "withdraw",
      "outputs": [
        {
          "internalType": "uint256",
          "name": "",
          "type": "uint256"
        }
      ],
      "stateMutability": "payable",
      "type": "function"
    },
    {
      "inputs": [
        {
          "internalType": "contract IERC20",
          "name": "token",
          "type": "address"
        },
        {
          "internalType": "uint256",
          "name": "tokenId",
          "type": "uint256"
        }
      ],
      "name": "withdraw",
      "outputs": [
        {
          "internalType": "uint256",
          "name": "",
          "type": "uint256"
        }
      ],
      "stateMutability": "payable",
      "type": "function"
    },
    {
      "stateMutability": "payable",
      "type": "receive"
    }
  ],
  "bytecode": "0x60806040523480156200001157600080fd5b50604051620051623803806200516283398101604081905262000034916200045c565b8451859085906200004d90600090602085019062000327565b5080516200006390600190602084019062000327565b505050620000806200007a620000fb60201b60201c565b620000ff565b6200008d33606462000151565b8251620000a1906020908186019062000327565b50601b829055601c81905560405133907fc1d48f1736a531302a78b74590d0777fc17b24d24429d1e262591b9c4a10e55890620000e890869088908a90889088906200052a565b60405180910390a2505050505062000604565b3390565b600c80546001600160a01b038381166001600160a01b0319831681179093556040519116919082907f8be0079c531659141344cd1fd0a4f28419497f9722a3daafe3b4186f6b6457e090600090a35050565b6001600160a01b038216620001c25760405162461bcd60e51b815260206004820152602c60248201527f5061796d656e7453706c69747465723a206163636f756e74206973207468652060448201526b7a65726f206164647265737360a01b60648201526084015b60405180910390fd5b60008111620002145760405162461bcd60e51b815260206004820152601d60248201527f5061796d656e7453706c69747465723a207368617265732061726520300000006044820152606401620001b9565b6001600160a01b03821660009081526010602052604090205415620002905760405162461bcd60e51b815260206004820152602b60248201527f5061796d656e7453706c69747465723a206163636f756e7420616c726561647960448201526a206861732073686172657360a81b6064820152608401620001b9565b60128054600181019091557fbb8a6a4669ba250d26cd7a459eca9d215f8307e33aebe50379bc5a3617ec34440180546001600160a01b0319166001600160a01b038416908117909155600081815260106020908152604091829020849055815192835282018390527f40c340f65e17194d14ddddb073d3c9f888e3cb52b5aae0c6c7706b4fbc905fac910160405180910390a15050565b8280546200033590620005b1565b90600052602060002090601f016020900481019282620003595760008555620003a4565b82601f106200037457805160ff1916838001178555620003a4565b82800160010185558215620003a4579182015b82811115620003a457825182559160200191906001019062000387565b50620003b2929150620003b6565b5090565b5b80821115620003b25760008155600101620003b7565b600082601f830112620003de578081fd5b81516001600160401b0380821115620003fb57620003fb620005ee565b604051601f8301601f19908116603f01168101908282118183101715620004265762000426620005ee565b816040528381528660208588010111156200043f578485fd5b620004528460208301602089016200057e565b9695505050505050565b600080600080600060a0868803121562000474578081fd5b85516001600160401b03808211156200048b578283fd5b6200049989838a01620003cd565b96506020880151915080821115620004af578283fd5b620004bd89838a01620003cd565b95506040880151915080821115620004d3578283fd5b50620004e288828901620003cd565b606088015160809098015196999598509695949350505050565b60008151808452620005168160208601602086016200057e565b601f01601f19169290920160200192915050565b60a0815260006200053f60a0830188620004fc565b8281036020840152620005538188620004fc565b90508281036040840152620005698187620004fc565b60608401959095525050608001529392505050565b60005b838110156200059b57818101518382015260200162000581565b83811115620005ab576000848401525b50505050565b600181811c90821680620005c657607f821691505b60208210811415620005e857634e487b7160e01b600052602260045260246000fd5b50919050565b634e487b7160e01b600052604160045260246000fd5b614b4e80620006146000396000f3fe6080604052600436106103f35760003560e01c80636a62784211610208578063a260633411610118578063d0e30db0116100ab578063e33b7de31161007a578063e33b7de314610c13578063e985e9c514610c28578063f2fde38b14610c71578063f3fef3a314610c91578063fdf8967314610ca457600080fd5b8063d0e30db014610bad578063d684beff14610bb5578063d79779b214610bca578063d96a094a14610c0057600080fd5b8063bfcbf085116100e7578063bfcbf08514610b22578063c4e41b2214610b42578063c87b56dd14610b57578063ce7c2ac214610b7757600080fd5b8063a260633414610a95578063ac4b4a1014610ab5578063b34c8caf14610ad5578063b88d4fde14610b0257600080fd5b80638417b47f1161019b5780638c7ea24b1161016a5780638c7ea24b146109ec5780638da5cb5b14610a0c57806395d89b4114610a2a5780639852595c14610a3f578063a22cb46514610a7557600080fd5b80638417b47f146109825780638859e91f146109a2578063893d20e8146109b75780638b83209b146109cc57600080fd5b8063715018a6116101d7578063715018a61461091a5780637a2ad1a61461092f5780637deb60251461094f578063814a76fe1461096257600080fd5b80636a627842146108a85780636c88fa27146108bb5780636f8b44b0146108da57806370a08231146108fa57600080fd5b80632f745c591161030357806347e7ef2411610296578063589a174311610265578063589a17431461080257806359aa03aa146108385780635c975abb1461085857806363167ced146108725780636352211e1461088857600080fd5b806347e7ef241461079a57806348b75044146107ad5780634c0f38c2146107cd5780634f6ccce7146107e257600080fd5b806342842e0e116102d257806342842e0e1461072457806342966c6814610744578063438ea94a1461076457806347d91e031461078457600080fd5b80632f745c591461069357806335db70b5146106b35780633e48d88f146106c9578063406072a9146106de57600080fd5b806318160ddd1161038657806320e043f81161035557806320e043f8146105e157806323b872dd1461060157806327ec10a9146106215780632a55205a146106415780632e1a7d4d1461068057600080fd5b806318160ddd1461056a57806318eef3951461057f57806318fbcdb3146105ac57806319165587146105c157600080fd5b8063095ea7b3116103c2578063095ea7b3146104fd578063116688641461051f5780631249c58b1461054d578063172958941461055557600080fd5b806301ffc9a71461045957806303ee438c1461048e57806306fdde03146104b0578063081812fc146104c557600080fd5b3661045457601f54610100900460ff161561041057610410610cc4565b7f6ef95f06320e7a25a04a175ca677b7052bdd97131872c2192525a629f51be77033604080516001600160a01b0390921682523460208301520160405180910390a1005b600080fd5b34801561046557600080fd5b5061047961047436600461469a565b610daa565b60405190151581526020015b60405180910390f35b34801561049a57600080fd5b506104a3610dbb565b6040516104859190614802565b3480156104bc57600080fd5b506104a3610e49565b3480156104d157600080fd5b506104e56104e03660046146e4565b610edb565b6040516001600160a01b039091168152602001610485565b34801561050957600080fd5b5061051d6105183660046145a1565b610f70565b005b34801561052b57600080fd5b5061053f61053a3660046146e4565b611086565b604051908152602001610485565b61053f61113b565b34801561056157600080fd5b50600e5461053f565b34801561057657600080fd5b5060095461053f565b34801561058b57600080fd5b5061053f61059a3660046146e4565b60009081526018602052604090205490565b3480156105b857600080fd5b50601e5461053f565b3480156105cd57600080fd5b5061051d6105dc366004614407565b61121a565b3480156105ed57600080fd5b5061051d6105fc366004614662565b61135c565b34801561060d57600080fd5b5061051d61061c36600461445b565b6113da565b34801561062d57600080fd5b5061051d61063c366004614407565b61140c565b34801561064d57600080fd5b5061066161065c366004614738565b611500565b604080516001600160a01b039093168352602083019190915201610485565b61053f61068e3660046146e4565b611555565b34801561069f57600080fd5b5061053f6106ae3660046145a1565b611700565b3480156106bf57600080fd5b5061053f601c5481565b3480156106d557600080fd5b50600f5461053f565b3480156106ea57600080fd5b5061053f6106f93660046146d2565b6001600160a01b03918216600090815260146020908152604080832093909416825291909152205490565b34801561073057600080fd5b5061051d61073f36600461445b565b611796565b34801561075057600080fd5b5061051d61075f3660046146e4565b6117b1565b34801561077057600080fd5b5061053f61077f3660046145a1565b611807565b34801561079057600080fd5b5061053f601e5481565b61051d6107a83660046145a1565b6118bf565b3480156107b957600080fd5b5061051d6107c83660046146d2565b611b0a565b3480156107d957600080fd5b50601b5461053f565b3480156107ee57600080fd5b5061053f6107fd3660046146e4565b611d2a565b34801561080e57600080fd5b506104e561081d3660046146e4565b6000908152601760205260409020546001600160a01b031690565b34801561084457600080fd5b5061051d6108533660046145f9565b611dcb565b34801561086457600080fd5b50601f546104799060ff1681565b34801561087e57600080fd5b5061053f601d5481565b34801561089457600080fd5b506104e56108a33660046146e4565b6120e3565b61053f6108b6366004614407565b61215a565b3480156108c757600080fd5b50601f5461047990610100900460ff1681565b3480156108e657600080fd5b5061051d6108f53660046146e4565b612258565b34801561090657600080fd5b5061053f610915366004614407565b6122b5565b34801561092657600080fd5b5061051d61233c565b34801561093b57600080fd5b50601a546104e5906001600160a01b031681565b61047961095d366004614714565b612372565b34801561096e57600080fd5b5061051d61097d366004614738565b612492565b34801561098e57600080fd5b5061051d61099d3660046146e4565b6124e5565b3480156109ae57600080fd5b50601d5461053f565b3480156109c357600080fd5b506104e5612542565b3480156109d857600080fd5b506104e56109e73660046146e4565b612556565b3480156109f857600080fd5b5061051d610a073660046145a1565b612594565b348015610a1857600080fd5b50600c546001600160a01b03166104e5565b348015610a3657600080fd5b506104a361267e565b348015610a4b57600080fd5b5061053f610a5a366004614407565b6001600160a01b031660009081526011602052604090205490565b348015610a8157600080fd5b5061051d610a90366004614574565b61268d565b348015610aa157600080fd5b5061051d610ab03660046146e4565b612698565b348015610ac157600080fd5b506019546104e5906001600160a01b031681565b348015610ae157600080fd5b5061053f610af0366004614407565b60106020526000908152604090205481565b348015610b0e57600080fd5b5061051d610b1d36600461449b565b612732565b348015610b2e57600080fd5b5061051d610b3d3660046145a1565b61276a565b348015610b4e57600080fd5b5061053f61283d565b348015610b6357600080fd5b506104a3610b723660046146e4565b612848565b348015610b8357600080fd5b5061053f610b92366004614407565b6001600160a01b031660009081526010602052604090205490565b61051d610cc4565b348015610bc157600080fd5b5061051d612959565b348015610bd657600080fd5b5061053f610be5366004614407565b6001600160a01b031660009081526013602052604090205490565b610479610c0e3660046146e4565b6129cf565b348015610c1f57600080fd5b50600d5461053f565b348015610c3457600080fd5b50610479610c43366004614423565b6001600160a01b03918216600090815260056020908152604080832093909416825291909152205460ff1690565b348015610c7d57600080fd5b5061051d610c8c366004614407565b6129ff565b61053f610c9f3660046145a1565b612a9a565b348015610cb057600080fd5b5061051d610cbf3660046146e4565b612c7c565b6019546001600160a01b0316610cf55760405162461bcd60e51b8152600401610cec906149c2565b60405180910390fd5b6000610d0060095490565b60195460405163a64271f160e01b8152346004820152602481018390529192506001600160a01b03169063a64271f190604401600060405180830381600087803b158015610d4d57600080fd5b505af1158015610d61573d6000803e3d6000fd5b5050505034600e6000828254610d7791906149e4565b909155505060405134907f3903d05344bfbe173a5084aa4d3a99187eff3f7bfb3db786c814e7eddd9b3cd590600090a250565b6000610db582612d16565b92915050565b60208054610dc890614a7e565b80601f0160208091040260200160405190810160405280929190818152602001828054610df490614a7e565b8015610e415780601f10610e1657610100808354040283529160200191610e41565b820191906000526020600020905b815481529060010190602001808311610e2457829003601f168201915b505050505081565b606060008054610e5890614a7e565b80601f0160208091040260200160405190810160405280929190818152602001828054610e8490614a7e565b8015610ed15780601f10610ea657610100808354040283529160200191610ed1565b820191906000526020600020905b815481529060010190602001808311610eb457829003601f168201915b5050505050905090565b6000818152600260205260408120546001600160a01b0316610f545760405162461bcd60e51b815260206004820152602c60248201527f4552433732313a20617070726f76656420717565727920666f72206e6f6e657860448201526b34b9ba32b73a103a37b5b2b760a11b6064820152608401610cec565b506000908152600460205260409020546001600160a01b031690565b6000610f7b826120e3565b9050806001600160a01b0316836001600160a01b03161415610fe95760405162461bcd60e51b815260206004820152602160248201527f4552433732313a20617070726f76616c20746f2063757272656e74206f776e656044820152603960f91b6064820152608401610cec565b336001600160a01b038216148061100557506110058133610c43565b6110775760405162461bcd60e51b815260206004820152603860248201527f4552433732313a20617070726f76652063616c6c6572206973206e6f74206f7760448201527f6e6572206e6f7220617070726f76656420666f7220616c6c00000000000000006064820152608401610cec565b6110818383612d3b565b505050565b6019546000906001600160a01b03166110b15760405162461bcd60e51b8152600401610cec906149c2565b6019546040516321c754a560e11b8152306004820152602481018490526000916001600160a01b03169063438ea94a9060440160206040518083038186803b1580156110fc57600080fd5b505afa158015611110573d6000803e3d6000fd5b505050506040513d601f19601f8201168201806040525081019061113491906146fc565b9392505050565b601f5460009060ff16156111615760405162461bcd60e51b8152600401610cec906148f8565b601c5434101561119e5760405162461bcd60e51b81526020600482015260086024820152674f463a452d30303160c01b6044820152606401610cec565b601a546001600160a01b03161561120d57601a546040516335313c2160e11b81523360048201526001600160a01b0390911690636a62784290602401600060405180830381600087803b1580156111f457600080fd5b505af1158015611208573d6000803e3d6000fd5b505050505b611215612da9565b905090565b6001600160a01b03811660009081526010602052604090205461124f5760405162461bcd60e51b8152600401610cec90614867565b6000600f54600e546112619190614a3b565b600d5461126e90476149e4565b6112789190614a3b565b905060006112a583836112a0866001600160a01b031660009081526011602052604090205490565b612eb5565b9050806112c45760405162461bcd60e51b8152600401610cec906148ad565b6001600160a01b038316600090815260116020526040812080548392906112ec9084906149e4565b9250508190555080600d600082825461130591906149e4565b9091555061131590508382612ef1565b604080516001600160a01b0385168152602081018390527fdf20fd1e76bc69d672e4814fafb2c449bba3a5369d8359adf9e05e6fde87b056910160405180910390a1505050565b600c546001600160a01b031633146113865760405162461bcd60e51b8152600401610cec9061493c565b601f80548215156101000261ff00199091161790556040517f3a9f3068efffc2c344476f4462a2e3b810f4f1ee97e3b31df178df7020e58243906113cf90831515815260200190565b60405180910390a150565b6113e5335b8261300a565b6114015760405162461bcd60e51b8152600401610cec90614971565b6110818383836130fd565b600c546001600160a01b031633146114365760405162461bcd60e51b8152600401610cec9061493c565b601a80546001600160a01b0383166001600160a01b031990911681179091556368a540c761146c600c546001600160a01b031690565b6040516001600160e01b031960e084901b1681526001600160a01b039091166004820152602401600060405180830381600087803b1580156114ad57600080fd5b505af11580156114c1573d6000803e3d6000fd5b5050601a546040516001600160a01b0390911692507f1e22c56232a0d367cb86087b57c1fc49b4bdcff57db9930fd4bda0d0d2ad15b99150600090a250565b60408051808201909152600b546001600160a01b038116808352600160a01b90910462ffffff16602083018190529091600091612710906115419086614a1c565b61154b91906149fc565b9150509250929050565b600081611561336113df565b61157d5760405162461bcd60e51b8152600401610cec9061491a565b6019546001600160a01b03166115a55760405162461bcd60e51b8152600401610cec906149c2565b60006115b0846120e3565b6019546040516321c754a560e11b8152306004820152602481018790529192506000916001600160a01b039091169063438ea94a9060440160206040518083038186803b15801561160057600080fd5b505afa158015611614573d6000803e3d6000fd5b505050506040513d601f19601f8201168201806040525081019061163891906146fc565b905061164d6001600160a01b03831682612ef1565b80600f600082825461165f91906149e4565b9091555050601954604051630e6621ff60e11b815260006004820152602481018790526001600160a01b0390911690631ccc43fe90604401600060405180830381600087803b1580156116b157600080fd5b505af11580156116c5573d6000803e3d6000fd5b50506040518392508791507fd2e9df57c00b23ba7ee3ed404df528700b0f0990b7292602d48fb3b9764e507690600090a39250505b50919050565b600061170b836122b5565b821061176d5760405162461bcd60e51b815260206004820152602b60248201527f455243373231456e756d657261626c653a206f776e657220696e646578206f7560448201526a74206f6620626f756e647360a81b6064820152608401610cec565b506001600160a01b03919091166000908152600760209081526040808320938352929052205490565b61108183838360405180602001604052806000815250612732565b806117bb336113df565b6117d75760405162461bcd60e51b8152600401610cec9061491a565b601f5460ff16156117fa5760405162461bcd60e51b8152600401610cec906148f8565b611803826132a8565b5050565b6019546000906001600160a01b03166118325760405162461bcd60e51b8152600401610cec906149c2565b601954604051632ba77cf560e21b81526000916001600160a01b03169063ae9df3d490611867908790309088906004016147a1565b60206040518083038186803b15801561187f57600080fd5b505afa158015611893573d6000803e3d6000fd5b505050506040513d601f19601f820116820180604052508101906118b791906146fc565b949350505050565b604051636eb1769f60e11b81523360048201523060248201526000906001600160a01b0384169063dd62ed3e9060440160206040518083038186803b15801561190757600080fd5b505afa15801561191b573d6000803e3d6000fd5b505050506040513d601f19601f8201168201806040525081019061193f91906146fc565b9050600061194c60095490565b6019549091506001600160a01b03166119775760405162461bcd60e51b8152600401610cec906149c2565b828210156119b25760405162461bcd60e51b815260206004820152600860248201526713d18e914b4c0c0d60c21b6044820152606401610cec565b6040516323b872dd60e01b81526001600160a01b038516906323b872dd906119e2903390309088906004016147a1565b602060405180830381600087803b1580156119fc57600080fd5b505af1158015611a10573d6000803e3d6000fd5b505050506040513d601f19601f82011682018060405250810190611a34919061467e565b5060195460405162f9874d60e31b81526001600160a01b0386811660048301526024820186905260448201849052909116906307cc3a6890606401600060405180830381600087803b158015611a8957600080fd5b505af1158015611a9d573d6000803e3d6000fd5b505050506001600160a01b03841660009081526015602052604081208054859290611ac99084906149e4565b909155505060405134906001600160a01b038616907f8d5b2df7eba39b5e2a616e9c89e0c253c36b92c638f32ad4f4e2bedc0ee5ba7d90600090a350505050565b6001600160a01b038116600090815260106020526040902054611b3f5760405162461bcd60e51b8152600401610cec90614867565b6001600160a01b0382166000908152601660209081526040808320546015909252822054611b6d9190614a3b565b6001600160a01b0384166000908152601360205260409020546040516370a0823160e01b81523060048201526001600160a01b038616906370a082319060240160206040518083038186803b158015611bc557600080fd5b505afa158015611bd9573d6000803e3d6000fd5b505050506040513d601f19601f82011682018060405250810190611bfd91906146fc565b611c0791906149e4565b611c119190614a3b565b90506000611c4a83836112a087876001600160a01b03918216600090815260146020908152604080832093909416825291909152205490565b905080611c695760405162461bcd60e51b8152600401610cec906148ad565b6001600160a01b03808516600090815260146020908152604080832093871683529290529081208054839290611ca09084906149e4565b90915550506001600160a01b03841660009081526013602052604081208054839290611ccd9084906149e4565b90915550611cde90508484836132b1565b604080516001600160a01b038581168252602082018490528616917f3be5b7a71e84ed12875d241991c70855ac5817d847039e17a9d895c1ceb0f18a910160405180910390a250505050565b6000611d3560095490565b8210611d985760405162461bcd60e51b815260206004820152602c60248201527f455243373231456e756d657261626c653a20676c6f62616c20696e646578206f60448201526b7574206f6620626f756e647360a01b6064820152608401610cec565b60098281548110611db957634e487b7160e01b600052603260045260246000fd5b90600052602060002001549050919050565b828114611e355760405162461bcd60e51b815260206004820152603260248201527f5061796d656e7453706c69747465723a2070617965657320616e6420736861726044820152710cae640d8cadccee8d040dad2e6dac2e8c6d60731b6064820152608401610cec565b82611e825760405162461bcd60e51b815260206004820152601a60248201527f5061796d656e7453706c69747465723a206e6f207061796565730000000000006044820152606401610cec565b60005b838110156120dc57828282818110611ead57634e487b7160e01b600052603260045260246000fd5b9050602002013560106000336001600160a01b03166001600160a01b03168152602001908152602001600020541015611f50576040805162461bcd60e51b81526020600482015260248101919091527f5061796d656e7453706c69747465723a206163636f756e7420646f6573206e6f60448201527f74206861766520656e6f7567682073686172657320746f20616c6c6f636174656064820152608401610cec565b828282818110611f7057634e487b7160e01b600052603260045260246000fd5b33600090815260106020908152604090912054611f94949190920201359150614a3b565b3360009081526010602081905260408220929092559081878785818110611fcb57634e487b7160e01b600052603260045260246000fd5b9050602002016020810190611fe09190614407565b6001600160a01b03166001600160a01b031681526020019081526020016000205411156120705761206b85858381811061202a57634e487b7160e01b600052603260045260246000fd5b905060200201602081019061203f9190614407565b84848481811061205f57634e487b7160e01b600052603260045260246000fd5b90506020020135613303565b6120d4565b6120d485858381811061209357634e487b7160e01b600052603260045260246000fd5b90506020020160208101906120a89190614407565b8484848181106120c857634e487b7160e01b600052603260045260246000fd5b90506020020135613380565b600101611e85565b5050505050565b6000818152600260205260408120546001600160a01b031680610db55760405162461bcd60e51b815260206004820152602960248201527f4552433732313a206f776e657220717565727920666f72206e6f6e657869737460448201526832b73a103a37b5b2b760b91b6064820152608401610cec565b601f5460009060ff16156121805760405162461bcd60e51b8152600401610cec906148f8565b601c543410156121bd5760405162461bcd60e51b81526020600482015260086024820152674f463a452d30303160c01b6044820152606401610cec565b601d54156122505760006121d3601d5434613545565b90506121e86001600160a01b03841682612ef1565b604051667072696d61727960c81b81526001600160a01b0384169060070160405180910390207f522c39d7156b7dd9419c7853d069ac52655fb23c5ec017f319477ad7bef213aa61223860095490565b604080519182523460208301520160405180910390a3505b610db5612da9565b600c546001600160a01b031633146122825760405162461bcd60e51b8152600401610cec9061493c565b601b81905560405181907facc639f1ff310faf48650d02a82bd24c924e45a5050fc931245096ac57c309d990600090a250565b60006001600160a01b0382166123205760405162461bcd60e51b815260206004820152602a60248201527f4552433732313a2062616c616e636520717565727920666f7220746865207a65604482015269726f206164647265737360b01b6064820152608401610cec565b506001600160a01b031660009081526003602052604090205490565b600c546001600160a01b031633146123665760405162461bcd60e51b8152600401610cec9061493c565b612370600061355d565b565b601f5460009060ff16156123985760405162461bcd60e51b8152600401610cec906148f8565b6001600160a01b0382166123d95760405162461bcd60e51b815260206004820152600860248201526727a31d229698181960c11b6044820152606401610cec565b600083815260186020526040812054601e549091906123f89083613545565b601e5490915015612476576124166001600160a01b03851682612ef1565b604051687365636f6e6461727960b81b81526001600160a01b0385169060090160408051918290038220888352346020840152917f522c39d7156b7dd9419c7853d069ac52655fb23c5ec017f319477ad7bef213aa910160405180910390a35b6124898561248434846135af565b6135bb565b95945050505050565b601f5460ff16156124b55760405162461bcd60e51b8152600401610cec906148f8565b816124bf336113df565b6124db5760405162461bcd60e51b8152600401610cec9061491a565b61108183836137ab565b600c546001600160a01b0316331461250f5760405162461bcd60e51b8152600401610cec9061493c565b601c81905560405181907f02dd4e125a287edc7a6a887552dc7be35f4fdabe8afd6ae78f98b448d4e1a86690600090a250565b6000611215600c546001600160a01b031690565b60006012828154811061257957634e487b7160e01b600052603260045260246000fd5b6000918252602090912001546001600160a01b031692915050565b600c546001600160a01b031633146125be5760405162461bcd60e51b8152600401610cec9061493c565b600081116125f95760405162461bcd60e51b815260206004820152600860248201526713d18e914b4c0c0d60c21b6044820152606401610cec565b6001600160a01b03821661263a5760405162461bcd60e51b81526020600482015260086024820152674f463a452d30303560c01b6044820152606401610cec565b61264482826137fc565b60405181906001600160a01b038416907f908669f35f6fb3977a956ba70597841fe541d1e8491ca3c025161e258d3bfdb690600090a35050565b606060018054610e5890614a7e565b611803338383613898565b600c546001600160a01b031633146126c25760405162461bcd60e51b8152600401610cec9061493c565b6127108111156126ff5760405162461bcd60e51b815260206004820152600860248201526727a31d229698181b60c11b6044820152606401610cec565b601e81905560405181907f905c2604b04c9fa2b09e05ab34ccae93abf21f5edd19a139c406fe9398f752a090600090a250565b61273c338361300a565b6127585760405162461bcd60e51b8152600401610cec90614971565b61276484848484613967565b50505050565b600c546001600160a01b031633146127945760405162461bcd60e51b8152600401610cec9061493c565b601980546001600160a01b0319166001600160a01b038416908117909155604051630e26c4ed60e01b815260048101839052630e26c4ed90602401600060405180830381600087803b1580156127e957600080fd5b505af11580156127fd573d6000803e3d6000fd5b50506019546040516001600160a01b0390911692507f7947799a5d3281fff4a4457606b1aaa700d7ddecbe5b6143ff45b6c9866a8cc29150600090a25050565b600061121560095490565b6000818152600260205260409020546060906001600160a01b03166128c75760405162461bcd60e51b815260206004820152602f60248201527f4552433732314d657461646174613a2055524920717565727920666f72206e6f60448201526e3732bc34b9ba32b73a103a37b5b2b760891b6064820152608401610cec565b602080546128d490614a7e565b80601f016020809104026020016040519081016040528092919081815260200182805461290090614a7e565b801561294d5780601f106129225761010080835404028352916020019161294d565b820191906000526020600020905b81548152906001019060200180831161293057829003601f168201915b50505050509050919050565b600c546001600160a01b031633146129835760405162461bcd60e51b8152600401610cec9061493c565b601f805460ff8082161560ff19909216821790925560405191161581527fa9bfed3d98385b3777389e321dbde773cf7d335fa604fefbae3dca93564f55869060200160405180910390a1565b601f5460009060ff16156129f55760405162461bcd60e51b8152600401610cec906148f8565b610db582346135bb565b600c546001600160a01b03163314612a295760405162461bcd60e51b8152600401610cec9061493c565b6001600160a01b038116612a8e5760405162461bcd60e51b815260206004820152602660248201527f4f776e61626c653a206e6577206f776e657220697320746865207a65726f206160448201526564647265737360d01b6064820152608401610cec565b612a978161355d565b50565b600081612aa6336113df565b612ac25760405162461bcd60e51b8152600401610cec9061491a565b6019546001600160a01b0316612aea5760405162461bcd60e51b8152600401610cec906149c2565b6000612af5846120e3565b601954604051632ba77cf560e21b81529192506000916001600160a01b039091169063ae9df3d490612b2f90899030908a906004016147a1565b60206040518083038186803b158015612b4757600080fd5b505afa158015612b5b573d6000803e3d6000fd5b505050506040513d601f19601f82011682018060405250810190612b7f91906146fc565b6001600160a01b038716600090815260166020526040812080549293508392909190612bac9084906149e4565b909155505060195460405163fdb047b160e01b81526001600160a01b03888116600483015260006024830152604482018890529091169063fdb047b190606401600060405180830381600087803b158015612c0657600080fd5b505af1158015612c1a573d6000803e3d6000fd5b50612c33925050506001600160a01b03871683836132b1565b6040516001600160a01b0387168152819086907f12ff21bbdebdfd7045c78e9aa73dc7777831b172e9097bc41bedd40f841c0afd9060200160405180910390a395945050505050565b600c546001600160a01b03163314612ca65760405162461bcd60e51b8152600401610cec9061493c565b612710811115612ce35760405162461bcd60e51b815260206004820152600860248201526727a31d229698181b60c11b6044820152606401610cec565b601d81905560405181907fb27a19d53c022a09a344f42378e7d232d66b643564218cbfc93c98c93a2bc7af90600090a250565b60006001600160e01b0319821663780e9d6360e01b1480610db55750610db58261399a565b600081815260046020526040902080546001600160a01b0319166001600160a01b0384169081179091558190612d70826120e3565b6001600160a01b03167f8c5be1e5ebec7d5bd14f71427d1e84f3dd0314c0f7b2291e5b200ac8c7c3b92560405160405180910390a45050565b6000612db460095490565b9050612dd03382604051806020016040528060008152506139ea565b600081815260176020908152604090912080546001600160a01b031916331790558054612e85918391612e0290614a7e565b80601f0160208091040260200160405190810160405280929190818152602001828054612e2e90614a7e565b8015612e7b5780601f10612e5057610100808354040283529160200191612e7b565b820191906000526020600020905b815481529060010190602001808311612e5e57829003601f168201915b5050505050613a1d565b604051339082907fb9203d657e9c0ec8274c818292ab0f58b04e1970050716891770eb1bab5d655e90600090a390565b6001600160a01b0383166000908152601060205260408120548290606490612edd9086614a1c565b612ee791906149fc565b6118b79190614a3b565b80471015612f415760405162461bcd60e51b815260206004820152601d60248201527f416464726573733a20696e73756666696369656e742062616c616e63650000006044820152606401610cec565b6000826001600160a01b03168260405160006040518083038185875af1925050503d8060008114612f8e576040519150601f19603f3d011682016040523d82523d6000602084013e612f93565b606091505b50509050806110815760405162461bcd60e51b815260206004820152603a60248201527f416464726573733a20756e61626c6520746f2073656e642076616c75652c207260448201527f6563697069656e74206d617920686176652072657665727465640000000000006064820152608401610cec565b6000818152600260205260408120546001600160a01b03166130835760405162461bcd60e51b815260206004820152602c60248201527f4552433732313a206f70657261746f7220717565727920666f72206e6f6e657860448201526b34b9ba32b73a103a37b5b2b760a11b6064820152608401610cec565b600061308e836120e3565b9050806001600160a01b0316846001600160a01b031614806130c95750836001600160a01b03166130be84610edb565b6001600160a01b0316145b806118b757506001600160a01b0380821660009081526005602090815260408083209388168352929052205460ff166118b7565b826001600160a01b0316613110826120e3565b6001600160a01b0316146131785760405162461bcd60e51b815260206004820152602960248201527f4552433732313a207472616e73666572206f6620746f6b656e2074686174206960448201526839903737ba1037bbb760b91b6064820152608401610cec565b6001600160a01b0382166131da5760405162461bcd60e51b8152602060048201526024808201527f4552433732313a207472616e7366657220746f20746865207a65726f206164646044820152637265737360e01b6064820152608401610cec565b6131e5838383613ab7565b6131f0600082612d3b565b6001600160a01b0383166000908152600360205260408120805460019290613219908490614a3b565b90915550506001600160a01b03821660009081526003602052604081208054600192906132479084906149e4565b909155505060008181526002602052604080822080546001600160a01b0319166001600160a01b0386811691821790925591518493918716917fddf252ad1be2c89b69c2b068fc378daa952ba7f163c4a11628f55a4df523b3ef91a4505050565b612a9781613ac2565b604080516001600160a01b038416602482015260448082018490528251808303909101815260649091019091526020810180516001600160e01b031663a9059cbb60e01b179052611081908490613b02565b6001600160a01b0382166000908152601060205260409020546133279082906149e4565b6001600160a01b03831660009081526010602052604090819020829055517fc2d736f9586f32c486adaf582e13ff65987fa49ed8336300b2cd723324ed7f819161337491339186916147a1565b60405180910390a15050565b6001600160a01b0382166133eb5760405162461bcd60e51b815260206004820152602c60248201527f5061796d656e7453706c69747465723a206163636f756e74206973207468652060448201526b7a65726f206164647265737360a01b6064820152608401610cec565b6000811161343b5760405162461bcd60e51b815260206004820152601d60248201527f5061796d656e7453706c69747465723a207368617265732061726520300000006044820152606401610cec565b6001600160a01b038216600090815260106020526040902054156134b55760405162461bcd60e51b815260206004820152602b60248201527f5061796d656e7453706c69747465723a206163636f756e7420616c726561647960448201526a206861732073686172657360a81b6064820152608401610cec565b60128054600181019091557fbb8a6a4669ba250d26cd7a459eca9d215f8307e33aebe50379bc5a3617ec34440180546001600160a01b0319166001600160a01b038416908117909155600081815260106020908152604091829020849055815192835282018390527f40c340f65e17194d14ddddb073d3c9f888e3cb52b5aae0c6c7706b4fbc905fac9101613374565b60006111346127106135578486613bd4565b90613be0565b600c80546001600160a01b038381166001600160a01b0319831681179093556040519116919082907f8be0079c531659141344cd1fd0a4f28419497f9722a3daafe3b4186f6b6457e090600090a35050565b60006111348284614a3b565b600082815260186020526040812054806136025760405162461bcd60e51b81526020600482015260086024820152674f463a452d30303760c01b6044820152606401610cec565b8083101561363d5760405162461bcd60e51b815260206004820152600860248201526709e8c748a5a6060760c31b6044820152606401610cec565b6000613648856120e3565b905060003360405163152a902d60e11b81526000600482018190526024820186905291925081903090632a55205a90604401604080518083038186803b15801561369157600080fd5b505afa1580156136a5573d6000803e3d6000fd5b505050506040513d601f19601f820116820180604052508101906136c991906145cc565b9092509050801561371e576136e76001600160a01b03831682612ef1565b60405181906001600160a01b038416907fbc86de696edc3350c664d50abf25f24e7e1251f1469ad925b25fe36927270d4390600090a35b61373b61372b86836135af565b6001600160a01b03861690612ef1565b826001600160a01b0316846001600160a01b0316897f23f50d55776d8003622a982ade45a6c7f083116c8dbbcd980f59942f440badb18860405161378191815260200190565b60405180910390a461379285613bec565b61379d84848a6130fd565b506001979650505050505050565b600082815260186020526040908190208290555182907fe23ea816dce6d7f5c0b85cbd597e7c3b97b2453791152c0b94e5e5c5f314d2f0906137f09084815260200190565b60405180910390a25050565b61271081111561384e5760405162461bcd60e51b815260206004820152601a60248201527f45524332393831526f79616c746965733a20546f6f20686967680000000000006044820152606401610cec565b604080518082019091526001600160a01b0390921680835262ffffff9091166020909201829052600b8054600160a01b9093026001600160b81b0319909316909117919091179055565b816001600160a01b0316836001600160a01b031614156138fa5760405162461bcd60e51b815260206004820152601960248201527f4552433732313a20617070726f766520746f2063616c6c6572000000000000006044820152606401610cec565b6001600160a01b03838116600081815260056020908152604080832094871680845294825291829020805460ff191686151590811790915591519182527f17307eab39ab6107e8899845ad3d59bd9653f200f220920489ca2b5937696c31910160405180910390a3505050565b6139728484846130fd565b61397e84848484613c0a565b6127645760405162461bcd60e51b8152600401610cec90614815565b60006001600160e01b031982166380ac58cd60e01b14806139cb57506001600160e01b03198216635b5e139f60e01b145b80610db557506301ffc9a760e01b6001600160e01b0319831614610db5565b6139f48383613d17565b613a016000848484613c0a565b6110815760405162461bcd60e51b8152600401610cec90614815565b6000828152600260205260409020546001600160a01b0316613a985760405162461bcd60e51b815260206004820152602e60248201527f45524337323155524953746f726167653a2055524920736574206f66206e6f6e60448201526d32bc34b9ba32b73a103a37b5b2b760911b6064820152608401610cec565b60008281526006602090815260409091208251611081928401906142ee565b611081838383613e65565b613acb81613f1d565b60008181526006602052604090208054613ae490614a7e565b159050612a97576000818152600660205260408120612a9791614372565b6000613b57826040518060400160405280602081526020017f5361666545524332303a206c6f772d6c6576656c2063616c6c206661696c6564815250856001600160a01b0316613fc49092919063ffffffff16565b8051909150156110815780806020019051810190613b75919061467e565b6110815760405162461bcd60e51b815260206004820152602a60248201527f5361666545524332303a204552433230206f7065726174696f6e20646964206e6044820152691bdd081cdd58d8d9595960b21b6064820152608401610cec565b60006111348284614a1c565b600061113482846149fc565b6000613bf834836135af565b90508015611803576118033382612ef1565b60006001600160a01b0384163b15613d0c57604051630a85bd0160e11b81526001600160a01b0385169063150b7a0290613c4e9033908990889088906004016147c5565b602060405180830381600087803b158015613c6857600080fd5b505af1925050508015613c98575060408051601f3d908101601f19168201909252613c95918101906146b6565b60015b613cf2573d808015613cc6576040519150601f19603f3d011682016040523d82523d6000602084013e613ccb565b606091505b508051613cea5760405162461bcd60e51b8152600401610cec90614815565b805181602001fd5b6001600160e01b031916630a85bd0160e11b1490506118b7565b506001949350505050565b6001600160a01b038216613d6d5760405162461bcd60e51b815260206004820181905260248201527f4552433732313a206d696e7420746f20746865207a65726f20616464726573736044820152606401610cec565b6000818152600260205260409020546001600160a01b031615613dd25760405162461bcd60e51b815260206004820152601c60248201527f4552433732313a20746f6b656e20616c7265616479206d696e746564000000006044820152606401610cec565b613dde60008383613ab7565b6001600160a01b0382166000908152600360205260408120805460019290613e079084906149e4565b909155505060008181526002602052604080822080546001600160a01b0319166001600160a01b03861690811790915590518392907fddf252ad1be2c89b69c2b068fc378daa952ba7f163c4a11628f55a4df523b3ef908290a45050565b6001600160a01b038316613ec057613ebb81600980546000838152600a60205260408120829055600182018355919091527f6e1540171b6c0c960b71a7020d9f60077f6af931a8bbf590da0223dacf75c7af0155565b613ee3565b816001600160a01b0316836001600160a01b031614613ee357613ee38382613fd3565b6001600160a01b038216613efa5761108181614070565b826001600160a01b0316826001600160a01b031614611081576110818282614149565b6000613f28826120e3565b9050613f3681600084613ab7565b613f41600083612d3b565b6001600160a01b0381166000908152600360205260408120805460019290613f6a908490614a3b565b909155505060008281526002602052604080822080546001600160a01b0319169055518391906001600160a01b038416907fddf252ad1be2c89b69c2b068fc378daa952ba7f163c4a11628f55a4df523b3ef908390a45050565b60606118b7848460008561418d565b60006001613fe0846122b5565b613fea9190614a3b565b60008381526008602052604090205490915080821461403d576001600160a01b03841660009081526007602090815260408083208584528252808320548484528184208190558352600890915290208190555b5060009182526008602090815260408084208490556001600160a01b039094168352600781528383209183525290812055565b60095460009061408290600190614a3b565b6000838152600a6020526040812054600980549394509092849081106140b857634e487b7160e01b600052603260045260246000fd5b9060005260206000200154905080600983815481106140e757634e487b7160e01b600052603260045260246000fd5b6000918252602080832090910192909255828152600a9091526040808220849055858252812055600980548061412d57634e487b7160e01b600052603160045260246000fd5b6001900381819060005260206000200160009055905550505050565b6000614154836122b5565b6001600160a01b039093166000908152600760209081526040808320868452825280832085905593825260089052919091209190915550565b6060824710156141ee5760405162461bcd60e51b815260206004820152602660248201527f416464726573733a20696e73756666696369656e742062616c616e636520666f6044820152651c8818d85b1b60d21b6064820152608401610cec565b843b61423c5760405162461bcd60e51b815260206004820152601d60248201527f416464726573733a2063616c6c20746f206e6f6e2d636f6e74726163740000006044820152606401610cec565b600080866001600160a01b031685876040516142589190614785565b60006040518083038185875af1925050503d8060008114614295576040519150601f19603f3d011682016040523d82523d6000602084013e61429a565b606091505b50915091506142aa8282866142b5565b979650505050505050565b606083156142c4575081611134565b8251156142d45782518084602001fd5b8160405162461bcd60e51b8152600401610cec9190614802565b8280546142fa90614a7e565b90600052602060002090601f01602090048101928261431c5760008555614362565b82601f1061433557805160ff1916838001178555614362565b82800160010185558215614362579182015b82811115614362578251825591602001919060010190614347565b5061436e9291506143a8565b5090565b50805461437e90614a7e565b6000825580601f1061438e575050565b601f016020900490600052602060002090810190612a9791905b5b8082111561436e57600081556001016143a9565b60008083601f8401126143ce578182fd5b50813567ffffffffffffffff8111156143e5578182fd5b6020830191508360208260051b850101111561440057600080fd5b9250929050565b600060208284031215614418578081fd5b813561113481614adf565b60008060408385031215614435578081fd5b823561444081614adf565b9150602083013561445081614adf565b809150509250929050565b60008060006060848603121561446f578081fd5b833561447a81614adf565b9250602084013561448a81614adf565b929592945050506040919091013590565b600080600080608085870312156144b0578081fd5b84356144bb81614adf565b935060208501356144cb81614adf565b925060408501359150606085013567ffffffffffffffff808211156144ee578283fd5b818701915087601f830112614501578283fd5b81358181111561451357614513614ac9565b604051601f8201601f19908116603f0116810190838211818310171561453b5761453b614ac9565b816040528281528a6020848701011115614553578586fd5b82602086016020830137918201602001949094529598949750929550505050565b60008060408385031215614586578182fd5b823561459181614adf565b9150602083013561445081614af4565b600080604083850312156145b3578182fd5b82356145be81614adf565b946020939093013593505050565b600080604083850312156145de578182fd5b82516145e981614adf565b6020939093015192949293505050565b6000806000806040858703121561460e578384fd5b843567ffffffffffffffff80821115614625578586fd5b614631888389016143bd565b90965094506020870135915080821115614649578384fd5b50614656878288016143bd565b95989497509550505050565b600060208284031215614673578081fd5b813561113481614af4565b60006020828403121561468f578081fd5b815161113481614af4565b6000602082840312156146ab578081fd5b813561113481614b02565b6000602082840312156146c7578081fd5b815161113481614b02565b60008060408385031215614435578182fd5b6000602082840312156146f5578081fd5b5035919050565b60006020828403121561470d578081fd5b5051919050565b60008060408385031215614726578182fd5b82359150602083013561445081614adf565b6000806040838503121561474a578182fd5b50508035926020909101359150565b60008151808452614771816020860160208601614a52565b601f01601f19169290920160200192915050565b60008251614797818460208701614a52565b9190910192915050565b6001600160a01b039384168152919092166020820152604081019190915260600190565b6001600160a01b03858116825284166020820152604081018390526080606082018190526000906147f890830184614759565b9695505050505050565b6020815260006111346020830184614759565b60208082526032908201527f4552433732313a207472616e7366657220746f206e6f6e20455243373231526560408201527131b2b4bb32b91034b6b83632b6b2b73a32b960711b606082015260800190565b60208082526026908201527f5061796d656e7453706c69747465723a206163636f756e7420686173206e6f2060408201526573686172657360d01b606082015260800190565b6020808252602b908201527f5061796d656e7453706c69747465723a206163636f756e74206973206e6f742060408201526a191d59481c185e5b595b9d60aa1b606082015260800190565b6020808252600890820152674f463a452d30303960c01b604082015260600190565b60208082526008908201526704f463a452d3031360c41b604082015260600190565b6020808252818101527f4f776e61626c653a2063616c6c6572206973206e6f7420746865206f776e6572604082015260600190565b60208082526031908201527f4552433732313a207472616e736665722063616c6c6572206973206e6f74206f6040820152701ddb995c881b9bdc88185c1c1c9bdd9959607a1b606082015260800190565b6020808252600890820152674f463a452d30303360c01b604082015260600190565b600082198211156149f7576149f7614ab3565b500190565b600082614a1757634e487b7160e01b81526012600452602481fd5b500490565b6000816000190483118215151615614a3657614a36614ab3565b500290565b600082821015614a4d57614a4d614ab3565b500390565b60005b83811015614a6d578181015183820152602001614a55565b838111156127645750506000910152565b600181811c90821680614a9257607f821691505b602082108114156116fa57634e487b7160e01b600052602260045260246000fd5b634e487b7160e01b600052601160045260246000fd5b634e487b7160e01b600052604160045260246000fd5b6001600160a01b0381168114612a9757600080fd5b8015158114612a9757600080fd5b6001600160e01b031981168114612a9757600080fdfea2646970667358221220629fe9c8b121d8162c351f022fd774f53386edf6d068b2b3a66e431065c87c6564736f6c63430008040033",
  "linkReferences": {},
  "deployedLinkReferences": {}
}