{
  "_format": "hh-sol-artifact-1",
  "contractName": "OpenFormat",
  "sourceName": "contracts/OpenFormat.sol",
  "abi": [
    {
      "inputs": [
        {
          "internalType": "string",
          "name": "name_",
          "type": "string"
        },
        {
          "internalType": "string",
          "name": "symbol_",
          "type": "string"
        },
        {
          "internalType": "string",
          "name": "metadataURI_",
          "type": "string"
        },
        {
          "internalType": "uint256",
          "name": "maxSupply_",
          "type": "uint256"
        },
        {
          "internalType": "uint256",
          "name": "mintingPrice_",
          "type": "uint256"
        }
      ],
      "stateMutability": "nonpayable",
      "type": "constructor"
    },
    {
      "anonymous": false,
      "inputs": [
        {
          "indexed": true,
          "internalType": "address",
          "name": "owner",
          "type": "address"
        },
        {
          "indexed": true,
          "internalType": "address",
          "name": "approved",
          "type": "address"
        },
        {
          "indexed": true,
          "internalType": "uint256",
          "name": "tokenId",
          "type": "uint256"
        }
      ],
      "name": "Approval",
      "type": "event"
    },
    {
      "anonymous": false,
      "inputs": [
        {
          "indexed": true,
          "internalType": "address",
          "name": "owner",
          "type": "address"
        },
        {
          "indexed": true,
          "internalType": "address",
          "name": "operator",
          "type": "address"
        },
        {
          "indexed": false,
          "internalType": "bool",
          "name": "approved",
          "type": "bool"
        }
      ],
      "name": "ApprovalForAll",
      "type": "event"
    },
    {
      "anonymous": false,
      "inputs": [
        {
          "indexed": true,
          "internalType": "address",
          "name": "contractAddress",
          "type": "address"
        }
      ],
      "name": "ApprovedDepositExtensionSet",
      "type": "event"
    },
    {
      "anonymous": false,
      "inputs": [
        {
          "indexed": true,
          "internalType": "address",
          "name": "contractAddresss",
          "type": "address"
        }
      ],
      "name": "ApprovedMintingExtensionSet",
      "type": "event"
    },
    {
      "anonymous": false,
      "inputs": [
        {
          "indexed": true,
          "internalType": "address",
          "name": "contractAddress",
          "type": "address"
        }
      ],
      "name": "ApprovedRoyaltyExtensionSet",
      "type": "event"
    },
    {
      "anonymous": false,
      "inputs": [
        {
          "indexed": true,
          "internalType": "string",
          "name": "commissionType",
          "type": "string"
        },
        {
          "indexed": true,
          "internalType": "address",
          "name": "to",
          "type": "address"
        },
        {
          "indexed": false,
          "internalType": "uint256",
          "name": "tokenId",
          "type": "uint256"
        },
        {
          "indexed": false,
          "internalType": "uint256",
          "name": "amount",
          "type": "uint256"
        }
      ],
      "name": "CommissionPaid",
      "type": "event"
    },
    {
      "anonymous": false,
      "inputs": [
        {
          "indexed": true,
          "internalType": "address",
          "name": "creator",
          "type": "address"
        },
        {
          "indexed": false,
          "internalType": "string",
          "name": "metadataURI",
          "type": "string"
        },
        {
          "indexed": false,
          "internalType": "string",
          "name": "symbol",
          "type": "string"
        },
        {
          "indexed": false,
          "internalType": "string",
          "name": "name",
          "type": "string"
        },
        {
          "indexed": false,
          "internalType": "uint256",
          "name": "maxSupply",
          "type": "uint256"
        },
        {
          "indexed": false,
          "internalType": "uint256",
          "name": "mintingPrice",
          "type": "uint256"
        }
      ],
      "name": "Created",
      "type": "event"
    },
    {
      "anonymous": false,
      "inputs": [
        {
          "indexed": true,
          "internalType": "contract IERC20",
          "name": "token",
          "type": "address"
        },
        {
          "indexed": false,
          "internalType": "address",
          "name": "to",
          "type": "address"
        },
        {
          "indexed": false,
          "internalType": "uint256",
          "name": "amount",
          "type": "uint256"
        }
      ],
      "name": "ERC20PaymentReleased",
      "type": "event"
    },
    {
      "anonymous": false,
      "inputs": [
        {
          "indexed": false,
          "internalType": "contract IERC20",
          "name": "token",
          "type": "address"
        },
        {
          "indexed": true,
          "internalType": "uint256",
          "name": "tokenId",
          "type": "uint256"
        },
        {
          "indexed": true,
          "internalType": "uint256",
          "name": "amount",
          "type": "uint256"
        }
      ],
      "name": "ERC20TokenBalanceWithdrawn",
      "type": "event"
    },
    {
      "anonymous": false,
      "inputs": [
        {
          "indexed": true,
          "internalType": "contract IERC20",
          "name": "token",
          "type": "address"
        },
        {
          "indexed": true,
          "internalType": "uint256",
          "name": "amount",
          "type": "uint256"
        }
      ],
      "name": "ERC20TotalDepositedAmountUpdated",
      "type": "event"
    },
    {
      "anonymous": false,
      "inputs": [
        {
          "indexed": true,
          "internalType": "uint256",
          "name": "amount",
          "type": "uint256"
        }
      ],
      "name": "MaxSupplySet",
      "type": "event"
    },
    {
      "anonymous": false,
      "inputs": [
        {
          "indexed": true,
          "internalType": "uint256",
          "name": "newTokenId",
          "type": "uint256"
        },
        {
          "indexed": true,
          "internalType": "address",
          "name": "owner",
          "type": "address"
        }
      ],
      "name": "Minted",
      "type": "event"
    },
    {
      "anonymous": false,
      "inputs": [
        {
          "indexed": true,
          "internalType": "uint256",
          "name": "amount",
          "type": "uint256"
        }
      ],
      "name": "MintingPriceSet",
      "type": "event"
    },
    {
      "anonymous": false,
      "inputs": [
        {
          "indexed": true,
          "internalType": "address",
          "name": "previousOwner",
          "type": "address"
        },
        {
          "indexed": true,
          "internalType": "address",
          "name": "newOwner",
          "type": "address"
        }
      ],
      "name": "OwnershipTransferred",
      "type": "event"
    },
    {
      "anonymous": false,
      "inputs": [
        {
          "indexed": false,
          "internalType": "bool",
          "name": "isPaused",
          "type": "bool"
        }
      ],
      "name": "PausedStateSet",
      "type": "event"
    },
    {
      "anonymous": false,
      "inputs": [
        {
          "indexed": false,
          "internalType": "address",
          "name": "account",
          "type": "address"
        },
        {
          "indexed": false,
          "internalType": "uint256",
          "name": "shares",
          "type": "uint256"
        }
      ],
      "name": "PayeeAdded",
      "type": "event"
    },
    {
      "anonymous": false,
      "inputs": [
        {
          "indexed": false,
          "internalType": "address",
          "name": "account",
          "type": "address"
        },
        {
          "indexed": false,
          "internalType": "uint256",
          "name": "shares",
          "type": "uint256"
        }
      ],
      "name": "PayeeRemoved",
      "type": "event"
    },
    {
      "anonymous": false,
      "inputs": [
        {
          "indexed": false,
          "internalType": "address",
          "name": "from",
          "type": "address"
        },
        {
          "indexed": false,
          "internalType": "uint256",
          "name": "amount",
          "type": "uint256"
        }
      ],
      "name": "PaymentReceived",
      "type": "event"
    },
    {
      "anonymous": false,
      "inputs": [
        {
          "indexed": false,
          "internalType": "address",
          "name": "to",
          "type": "address"
        },
        {
          "indexed": false,
          "internalType": "uint256",
          "name": "amount",
          "type": "uint256"
        }
      ],
      "name": "PaymentReleased",
      "type": "event"
    },
    {
      "anonymous": false,
      "inputs": [
        {
          "indexed": true,
          "internalType": "uint256",
          "name": "amount",
          "type": "uint256"
        }
      ],
      "name": "PrimaryCommissionSet",
      "type": "event"
    },
    {
      "anonymous": false,
      "inputs": [
        {
          "indexed": true,
          "internalType": "address",
          "name": "receiver",
          "type": "address"
        },
        {
          "indexed": true,
          "internalType": "uint256",
          "name": "percentage",
          "type": "uint256"
        }
      ],
      "name": "RoyaltiesSet",
      "type": "event"
    },
    {
      "anonymous": false,
      "inputs": [
        {
          "indexed": true,
          "internalType": "address",
          "name": "recipient",
          "type": "address"
        },
        {
          "indexed": true,
          "internalType": "uint256",
          "name": "amount",
          "type": "uint256"
        }
      ],
      "name": "RoyaltyPaid",
      "type": "event"
    },
    {
      "anonymous": false,
      "inputs": [
        {
          "indexed": true,
          "internalType": "uint256",
          "name": "tokenId",
          "type": "uint256"
        },
        {
          "indexed": false,
          "internalType": "uint256",
          "name": "salePrice",
          "type": "uint256"
        }
      ],
      "name": "SalePriceSet",
      "type": "event"
    },
    {
      "anonymous": false,
      "inputs": [
        {
          "indexed": true,
          "internalType": "uint256",
          "name": "amount",
          "type": "uint256"
        }
      ],
      "name": "SecondaryCommissionSet",
      "type": "event"
    },
    {
      "anonymous": false,
      "inputs": [
        {
          "indexed": false,
          "internalType": "address",
          "name": "from",
          "type": "address"
        },
        {
          "indexed": false,
          "internalType": "address",
          "name": "to",
          "type": "address"
        },
        {
          "indexed": false,
          "internalType": "uint256",
          "name": "amount",
          "type": "uint256"
        }
      ],
      "name": "SharesAllocated",
      "type": "event"
    },
    {
      "anonymous": false,
      "inputs": [
        {
          "indexed": true,
          "internalType": "uint256",
          "name": "tokenId",
          "type": "uint256"
        },
        {
          "indexed": true,
          "internalType": "address",
          "name": "oldOwner",
          "type": "address"
        },
        {
          "indexed": true,
          "internalType": "address",
          "name": "newOwner",
          "type": "address"
        },
        {
          "indexed": false,
          "internalType": "uint256",
          "name": "salePrice",
          "type": "uint256"
        }
      ],
      "name": "Sold",
      "type": "event"
    },
    {
      "anonymous": false,
      "inputs": [
        {
          "indexed": true,
          "internalType": "uint256",
          "name": "tokenId",
          "type": "uint256"
        },
        {
          "indexed": true,
          "internalType": "uint256",
          "name": "amount",
          "type": "uint256"
        }
      ],
      "name": "TokenBalanceWithdrawn",
      "type": "event"
    },
    {
      "anonymous": false,
      "inputs": [
        {
          "indexed": true,
          "internalType": "uint256",
          "name": "amount",
          "type": "uint256"
        }
      ],
      "name": "TotalDepositedAmountUpdated",
      "type": "event"
    },
    {
      "anonymous": false,
      "inputs": [
        {
          "indexed": true,
          "internalType": "address",
          "name": "from",
          "type": "address"
        },
        {
          "indexed": true,
          "internalType": "address",
          "name": "to",
          "type": "address"
        },
        {
          "indexed": true,
          "internalType": "uint256",
          "name": "tokenId",
          "type": "uint256"
        }
      ],
      "name": "Transfer",
      "type": "event"
    },
    {
      "inputs": [
        {
          "internalType": "address",
          "name": "",
          "type": "address"
        }
      ],
      "name": "_shares",
      "outputs": [
        {
          "internalType": "uint256",
          "name": "",
          "type": "uint256"
        }
      ],
      "stateMutability": "view",
      "type": "function"
    },
    {
      "inputs": [
        {
          "internalType": "address[]",
          "name": "accounts",
          "type": "address[]"
        },
        {
          "internalType": "uint256[]",
          "name": "shares_",
          "type": "uint256[]"
        }
      ],
      "name": "allocateShares",
      "outputs": [],
      "stateMutability": "nonpayable",
      "type": "function"
    },
    {
      "inputs": [
        {
          "internalType": "address",
          "name": "to",
          "type": "address"
        },
        {
          "internalType": "uint256",
          "name": "tokenId",
          "type": "uint256"
        }
      ],
      "name": "approve",
      "outputs": [],
      "stateMutability": "nonpayable",
      "type": "function"
    },
    {
      "inputs": [],
      "name": "approvedDepositExtension",
      "outputs": [
        {
          "internalType": "address",
          "name": "",
          "type": "address"
        }
      ],
      "stateMutability": "view",
      "type": "function"
    },
    {
      "inputs": [],
      "name": "approvedMintingExtension",
      "outputs": [
        {
          "internalType": "address",
          "name": "",
          "type": "address"
        }
      ],
      "stateMutability": "view",
      "type": "function"
    },
    {
      "inputs": [],
      "name": "approvedRoyaltyExtension",
      "outputs": [
        {
          "internalType": "address",
          "name": "",
          "type": "address"
        }
      ],
      "stateMutability": "view",
      "type": "function"
    },
    {
      "inputs": [
        {
          "internalType": "address",
          "name": "owner",
          "type": "address"
        }
      ],
      "name": "balanceOf",
      "outputs": [
        {
          "internalType": "uint256",
          "name": "",
          "type": "uint256"
        }
      ],
      "stateMutability": "view",
      "type": "function"
    },
    {
      "inputs": [
        {
          "internalType": "uint256",
          "name": "tokenId",
          "type": "uint256"
        }
      ],
      "name": "burn",
      "outputs": [],
      "stateMutability": "nonpayable",
      "type": "function"
    },
    {
      "inputs": [
        {
          "internalType": "uint256",
          "name": "tokenId",
          "type": "uint256"
        },
        {
          "internalType": "address",
          "name": "commissionAddress",
          "type": "address"
        }
      ],
      "name": "buy",
      "outputs": [
        {
          "internalType": "bool",
          "name": "",
          "type": "bool"
        }
      ],
      "stateMutability": "payable",
      "type": "function"
    },
    {
      "inputs": [
        {
          "internalType": "uint256",
          "name": "tokenId",
          "type": "uint256"
        }
      ],
      "name": "buy",
      "outputs": [
        {
          "internalType": "bool",
          "name": "",
          "type": "bool"
        }
      ],
      "stateMutability": "payable",
      "type": "function"
    },
    {
      "inputs": [
        {
          "internalType": "uint256",
          "name": "tokenId",
          "type": "uint256"
        }
      ],
      "name": "creatorOf",
      "outputs": [
        {
          "internalType": "address",
          "name": "",
          "type": "address"
        }
      ],
      "stateMutability": "view",
      "type": "function"
    },
    {
      "inputs": [
        {
          "internalType": "contract IERC20",
          "name": "token",
          "type": "address"
        },
        {
          "internalType": "uint256",
          "name": "amount",
          "type": "uint256"
        }
      ],
      "name": "deposit",
      "outputs": [],
      "stateMutability": "payable",
      "type": "function"
    },
    {
      "inputs": [],
      "name": "deposit",
      "outputs": [],
      "stateMutability": "payable",
      "type": "function"
    },
    {
      "inputs": [
        {
          "internalType": "uint256",
          "name": "tokenId",
          "type": "uint256"
        }
      ],
      "name": "getApproved",
      "outputs": [
        {
          "internalType": "address",
          "name": "",
          "type": "address"
        }
      ],
      "stateMutability": "view",
      "type": "function"
    },
    {
      "inputs": [],
      "name": "getMaxSupply",
      "outputs": [
        {
          "internalType": "uint256",
          "name": "",
          "type": "uint256"
        }
      ],
      "stateMutability": "view",
      "type": "function"
    },
    {
      "inputs": [],
      "name": "getOwner",
      "outputs": [
        {
          "internalType": "address",
          "name": "",
          "type": "address"
        }
      ],
      "stateMutability": "view",
      "type": "function"
    },
    {
      "inputs": [],
      "name": "getPrimaryCommissionPct",
      "outputs": [
        {
          "internalType": "uint256",
          "name": "",
          "type": "uint256"
        }
      ],
      "stateMutability": "view",
      "type": "function"
    },
    {
      "inputs": [],
      "name": "getSecondaryCommissionPct",
      "outputs": [
        {
          "internalType": "uint256",
          "name": "",
          "type": "uint256"
        }
      ],
      "stateMutability": "view",
      "type": "function"
    },
    {
      "inputs": [
        {
          "internalType": "address",
          "name": "caller",
          "type": "address"
        },
        {
          "internalType": "uint256",
          "name": "tokenId",
          "type": "uint256"
        }
      ],
      "name": "getSingleTokenBalance",
      "outputs": [
        {
          "internalType": "uint256",
          "name": "",
          "type": "uint256"
        }
      ],
      "stateMutability": "view",
      "type": "function"
    },
    {
      "inputs": [
        {
          "internalType": "contract IERC20",
          "name": "token",
          "type": "address"
        },
        {
          "internalType": "address",
          "name": "caller",
          "type": "address"
        },
        {
          "internalType": "uint256",
          "name": "tokenId",
          "type": "uint256"
        }
      ],
      "name": "getSingleTokenBalance",
      "outputs": [
        {
          "internalType": "uint256",
          "name": "",
          "type": "uint256"
        }
      ],
      "stateMutability": "view",
      "type": "function"
    },
    {
      "inputs": [
        {
          "internalType": "uint256",
          "name": "tokenId",
          "type": "uint256"
        }
      ],
      "name": "getTokenSalePrice",
      "outputs": [
        {
          "internalType": "uint256",
          "name": "",
          "type": "uint256"
        }
      ],
      "stateMutability": "view",
      "type": "function"
    },
    {
      "inputs": [],
      "name": "getTotalSupply",
      "outputs": [
        {
          "internalType": "uint256",
          "name": "",
          "type": "uint256"
        }
      ],
      "stateMutability": "view",
      "type": "function"
    },
    {
      "inputs": [
        {
          "internalType": "address",
          "name": "owner",
          "type": "address"
        },
        {
          "internalType": "address",
          "name": "operator",
          "type": "address"
        }
      ],
      "name": "isApprovedForAll",
      "outputs": [
        {
          "internalType": "bool",
          "name": "",
          "type": "bool"
        }
      ],
      "stateMutability": "view",
      "type": "function"
    },
    {
      "inputs": [],
      "name": "metadataURI",
      "outputs": [
        {
          "internalType": "string",
          "name": "",
          "type": "string"
        }
      ],
      "stateMutability": "view",
      "type": "function"
    },
    {
      "inputs": [],
      "name": "mint",
      "outputs": [
        {
          "internalType": "uint256",
          "name": "newTokenId",
          "type": "uint256"
        }
      ],
      "stateMutability": "payable",
      "type": "function"
    },
    {
      "inputs": [
        {
          "internalType": "address",
          "name": "commissionAddress",
          "type": "address"
        }
      ],
      "name": "mint",
      "outputs": [
        {
          "internalType": "uint256",
          "name": "newTokenId",
          "type": "uint256"
        }
      ],
      "stateMutability": "payable",
      "type": "function"
    },
    {
      "inputs": [],
      "name": "mintingPrice",
      "outputs": [
        {
          "internalType": "uint256",
          "name": "",
          "type": "uint256"
        }
      ],
      "stateMutability": "view",
      "type": "function"
    },
    {
      "inputs": [],
      "name": "name",
      "outputs": [
        {
          "internalType": "string",
          "name": "",
          "type": "string"
        }
      ],
      "stateMutability": "view",
      "type": "function"
    },
    {
      "inputs": [],
      "name": "owner",
      "outputs": [
        {
          "internalType": "address",
          "name": "",
          "type": "address"
        }
      ],
      "stateMutability": "view",
      "type": "function"
    },
    {
      "inputs": [
        {
          "internalType": "uint256",
          "name": "tokenId",
          "type": "uint256"
        }
      ],
      "name": "ownerOf",
      "outputs": [
        {
          "internalType": "address",
          "name": "",
          "type": "address"
        }
      ],
      "stateMutability": "view",
      "type": "function"
    },
    {
      "inputs": [],
      "name": "paused",
      "outputs": [
        {
          "internalType": "bool",
          "name": "",
          "type": "bool"
        }
      ],
      "stateMutability": "view",
      "type": "function"
    },
    {
      "inputs": [
        {
          "internalType": "uint256",
          "name": "index",
          "type": "uint256"
        }
      ],
      "name": "payee",
      "outputs": [
        {
          "internalType": "address",
          "name": "",
          "type": "address"
        }
      ],
      "stateMutability": "view",
      "type": "function"
    },
    {
      "inputs": [],
      "name": "primaryCommissionPct",
      "outputs": [
        {
          "internalType": "uint256",
          "name": "",
          "type": "uint256"
        }
      ],
      "stateMutability": "view",
      "type": "function"
    },
    {
      "inputs": [
        {
          "internalType": "address payable",
          "name": "account",
          "type": "address"
        }
      ],
      "name": "release",
      "outputs": [],
      "stateMutability": "nonpayable",
      "type": "function"
    },
    {
      "inputs": [
        {
          "internalType": "contract IERC20",
          "name": "token",
          "type": "address"
        },
        {
          "internalType": "address",
          "name": "account",
          "type": "address"
        }
      ],
      "name": "release",
      "outputs": [],
      "stateMutability": "nonpayable",
      "type": "function"
    },
    {
      "inputs": [
        {
          "internalType": "contract IERC20",
          "name": "token",
          "type": "address"
        },
        {
          "internalType": "address",
          "name": "account",
          "type": "address"
        }
      ],
      "name": "released",
      "outputs": [
        {
          "internalType": "uint256",
          "name": "",
          "type": "uint256"
        }
      ],
      "stateMutability": "view",
      "type": "function"
    },
    {
      "inputs": [
        {
          "internalType": "address",
          "name": "account",
          "type": "address"
        }
      ],
      "name": "released",
      "outputs": [
        {
          "internalType": "uint256",
          "name": "",
          "type": "uint256"
        }
      ],
      "stateMutability": "view",
      "type": "function"
    },
    {
      "inputs": [],
      "name": "renounceOwnership",
      "outputs": [],
      "stateMutability": "nonpayable",
      "type": "function"
    },
    {
      "inputs": [
        {
          "internalType": "uint256",
          "name": "",
          "type": "uint256"
        },
        {
          "internalType": "uint256",
          "name": "value",
          "type": "uint256"
        }
      ],
      "name": "royaltyInfo",
      "outputs": [
        {
          "internalType": "address",
          "name": "receiver",
          "type": "address"
        },
        {
          "internalType": "uint256",
          "name": "royaltyAmount",
          "type": "uint256"
        }
      ],
      "stateMutability": "view",
      "type": "function"
    },
    {
      "inputs": [
        {
          "internalType": "address",
          "name": "from",
          "type": "address"
        },
        {
          "internalType": "address",
          "name": "to",
          "type": "address"
        },
        {
          "internalType": "uint256",
          "name": "tokenId",
          "type": "uint256"
        }
      ],
      "name": "safeTransferFrom",
      "outputs": [],
      "stateMutability": "nonpayable",
      "type": "function"
    },
    {
      "inputs": [
        {
          "internalType": "address",
          "name": "from",
          "type": "address"
        },
        {
          "internalType": "address",
          "name": "to",
          "type": "address"
        },
        {
          "internalType": "uint256",
          "name": "tokenId",
          "type": "uint256"
        },
        {
          "internalType": "bytes",
          "name": "_data",
          "type": "bytes"
        }
      ],
      "name": "safeTransferFrom",
      "outputs": [],
      "stateMutability": "nonpayable",
      "type": "function"
    },
    {
      "inputs": [],
      "name": "secondaryCommissionPct",
      "outputs": [
        {
          "internalType": "uint256",
          "name": "",
          "type": "uint256"
        }
      ],
      "stateMutability": "view",
      "type": "function"
    },
    {
      "inputs": [
        {
          "internalType": "address",
          "name": "operator",
          "type": "address"
        },
        {
          "internalType": "bool",
          "name": "approved",
          "type": "bool"
        }
      ],
      "name": "setApprovalForAll",
      "outputs": [],
      "stateMutability": "nonpayable",
      "type": "function"
    },
    {
      "inputs": [
        {
          "internalType": "address",
          "name": "contractAddress_",
          "type": "address"
        },
        {
          "internalType": "uint256",
          "name": "holderPct_",
          "type": "uint256"
        }
      ],
      "name": "setApprovedDepositExtension",
      "outputs": [],
      "stateMutability": "nonpayable",
      "type": "function"
    },
    {
      "inputs": [
        {
          "internalType": "address",
          "name": "contractAddress_",
          "type": "address"
        }
      ],
      "name": "setApprovedMintingExtension",
      "outputs": [],
      "stateMutability": "nonpayable",
      "type": "function"
    },
    {
      "inputs": [
        {
          "internalType": "address",
          "name": "contractAddress_",
          "type": "address"
        }
      ],
      "name": "setApprovedRoyaltyExtension",
      "outputs": [],
      "stateMutability": "nonpayable",
      "type": "function"
    },
    {
      "inputs": [
        {
          "internalType": "uint256",
          "name": "_amount",
          "type": "uint256"
        }
      ],
      "name": "setMaxSupply",
      "outputs": [],
      "stateMutability": "nonpayable",
      "type": "function"
    },
    {
      "inputs": [
        {
          "internalType": "uint256",
          "name": "_amount",
          "type": "uint256"
        }
      ],
      "name": "setMintingPrice",
      "outputs": [],
      "stateMutability": "nonpayable",
      "type": "function"
    },
    {
      "inputs": [
        {
          "internalType": "uint256",
          "name": "amount_",
          "type": "uint256"
        }
      ],
      "name": "setPrimaryCommissionPct",
      "outputs": [],
      "stateMutability": "nonpayable",
      "type": "function"
    },
    {
      "inputs": [
        {
          "internalType": "address",
          "name": "royaltyReceiver",
          "type": "address"
        },
        {
          "internalType": "uint256",
          "name": "_royaltiesPct",
          "type": "uint256"
        }
      ],
      "name": "setRoyalties",
      "outputs": [],
      "stateMutability": "nonpayable",
      "type": "function"
    },
    {
      "inputs": [
        {
          "internalType": "uint256",
          "name": "amount_",
          "type": "uint256"
        }
      ],
      "name": "setSecondaryCommissionPct",
      "outputs": [],
      "stateMutability": "nonpayable",
      "type": "function"
    },
    {
      "inputs": [
        {
          "internalType": "uint256",
          "name": "tokenId",
          "type": "uint256"
        },
        {
          "internalType": "uint256",
          "name": "_salePrice",
          "type": "uint256"
        }
      ],
      "name": "setTokenSalePrice",
      "outputs": [],
      "stateMutability": "nonpayable",
      "type": "function"
    },
    {
      "inputs": [
        {
          "internalType": "address",
          "name": "account",
          "type": "address"
        }
      ],
      "name": "shares",
      "outputs": [
        {
          "internalType": "uint256",
          "name": "",
          "type": "uint256"
        }
      ],
      "stateMutability": "view",
      "type": "function"
    },
    {
      "inputs": [
        {
          "internalType": "bytes4",
          "name": "interfaceId",
          "type": "bytes4"
        }
      ],
      "name": "supportsInterface",
      "outputs": [
        {
          "internalType": "bool",
          "name": "",
          "type": "bool"
        }
      ],
      "stateMutability": "view",
      "type": "function"
    },
    {
      "inputs": [],
      "name": "symbol",
      "outputs": [
        {
          "internalType": "string",
          "name": "",
          "type": "string"
        }
      ],
      "stateMutability": "view",
      "type": "function"
    },
    {
      "inputs": [],
      "name": "togglePausedState",
      "outputs": [],
      "stateMutability": "nonpayable",
      "type": "function"
    },
    {
      "inputs": [
        {
          "internalType": "uint256",
          "name": "index",
          "type": "uint256"
        }
      ],
      "name": "tokenByIndex",
      "outputs": [
        {
          "internalType": "uint256",
          "name": "",
          "type": "uint256"
        }
      ],
      "stateMutability": "view",
      "type": "function"
    },
    {
      "inputs": [
        {
          "internalType": "address",
          "name": "owner",
          "type": "address"
        },
        {
          "internalType": "uint256",
          "name": "index",
          "type": "uint256"
        }
      ],
      "name": "tokenOfOwnerByIndex",
      "outputs": [
        {
          "internalType": "uint256",
          "name": "",
          "type": "uint256"
        }
      ],
      "stateMutability": "view",
      "type": "function"
    },
    {
      "inputs": [
        {
          "internalType": "uint256",
          "name": "tokenId",
          "type": "uint256"
        }
      ],
      "name": "tokenURI",
      "outputs": [
        {
          "internalType": "string",
          "name": "",
          "type": "string"
        }
      ],
      "stateMutability": "view",
      "type": "function"
    },
    {
      "inputs": [],
      "name": "totalDepositedAmount",
      "outputs": [
        {
          "internalType": "uint256",
          "name": "",
          "type": "uint256"
        }
      ],
      "stateMutability": "view",
      "type": "function"
    },
    {
      "inputs": [],
      "name": "totalDepositedReleased",
      "outputs": [
        {
          "internalType": "uint256",
          "name": "",
          "type": "uint256"
        }
      ],
      "stateMutability": "view",
      "type": "function"
    },
    {
      "inputs": [
        {
          "internalType": "contract IERC20",
          "name": "token",
          "type": "address"
        }
      ],
      "name": "totalReleased",
      "outputs": [
        {
          "internalType": "uint256",
          "name": "",
          "type": "uint256"
        }
      ],
      "stateMutability": "view",
      "type": "function"
    },
    {
      "inputs": [],
      "name": "totalReleased",
      "outputs": [
        {
          "internalType": "uint256",
          "name": "",
          "type": "uint256"
        }
      ],
      "stateMutability": "view",
      "type": "function"
    },
    {
      "inputs": [],
      "name": "totalSupply",
      "outputs": [
        {
          "internalType": "uint256",
          "name": "",
          "type": "uint256"
        }
      ],
      "stateMutability": "view",
      "type": "function"
    },
    {
      "inputs": [
        {
          "internalType": "address",
          "name": "from",
          "type": "address"
        },
        {
          "internalType": "address",
          "name": "to",
          "type": "address"
        },
        {
          "internalType": "uint256",
          "name": "tokenId",
          "type": "uint256"
        }
      ],
      "name": "transferFrom",
      "outputs": [],
      "stateMutability": "nonpayable",
      "type": "function"
    },
    {
      "inputs": [
        {
          "internalType": "address",
          "name": "newOwner",
          "type": "address"
        }
      ],
      "name": "transferOwnership",
      "outputs": [],
      "stateMutability": "nonpayable",
      "type": "function"
    },
    {
      "inputs": [
        {
          "internalType": "uint256",
          "name": "tokenId",
          "type": "uint256"
        }
      ],
      "name": "withdraw",
      "outputs": [
        {
          "internalType": "uint256",
          "name": "",
          "type": "uint256"
        }
      ],
      "stateMutability": "payable",
      "type": "function"
    },
    {
      "inputs": [
        {
          "internalType": "contract IERC20",
          "name": "token",
          "type": "address"
        },
        {
          "internalType": "uint256",
          "name": "tokenId",
          "type": "uint256"
        }
      ],
      "name": "withdraw",
      "outputs": [
        {
          "internalType": "uint256",
          "name": "",
          "type": "uint256"
        }
      ],
      "stateMutability": "payable",
      "type": "function"
    },
    {
      "stateMutability": "payable",
      "type": "receive"
    }
  ],
  "bytecode": "0x60806040523480156200001157600080fd5b50604051620050ff380380620050ff83398101604081905262000034916200045d565b8451859085906200004d90600090602085019062000328565b5080516200006390600190602084019062000328565b505050620000806200007a620000fc60201b60201c565b62000100565b6200008d33606462000152565b8251620000a290602190602086019062000328565b50601c829055601d81905560405133907fc1d48f1736a531302a78b74590d0777fc17b24d24429d1e262591b9c4a10e55890620000e990869088908a90889088906200052b565b60405180910390a2505050505062000605565b3390565b600c80546001600160a01b038381166001600160a01b0319831681179093556040519116919082907f8be0079c531659141344cd1fd0a4f28419497f9722a3daafe3b4186f6b6457e090600090a35050565b6001600160a01b038216620001c35760405162461bcd60e51b815260206004820152602c60248201527f5061796d656e7453706c69747465723a206163636f756e74206973207468652060448201526b7a65726f206164647265737360a01b60648201526084015b60405180910390fd5b60008111620002155760405162461bcd60e51b815260206004820152601d60248201527f5061796d656e7453706c69747465723a207368617265732061726520300000006044820152606401620001ba565b6001600160a01b03821660009081526010602052604090205415620002915760405162461bcd60e51b815260206004820152602b60248201527f5061796d656e7453706c69747465723a206163636f756e7420616c726561647960448201526a206861732073686172657360a81b6064820152608401620001ba565b60128054600181019091557fbb8a6a4669ba250d26cd7a459eca9d215f8307e33aebe50379bc5a3617ec34440180546001600160a01b0319166001600160a01b038416908117909155600081815260106020908152604091829020849055815192835282018390527f40c340f65e17194d14ddddb073d3c9f888e3cb52b5aae0c6c7706b4fbc905fac910160405180910390a15050565b8280546200033690620005b2565b90600052602060002090601f0160209004810192826200035a5760008555620003a5565b82601f106200037557805160ff1916838001178555620003a5565b82800160010185558215620003a5579182015b82811115620003a557825182559160200191906001019062000388565b50620003b3929150620003b7565b5090565b5b80821115620003b35760008155600101620003b8565b600082601f830112620003df578081fd5b81516001600160401b0380821115620003fc57620003fc620005ef565b604051601f8301601f19908116603f01168101908282118183101715620004275762000427620005ef565b8160405283815286602085880101111562000440578485fd5b620004538460208301602089016200057f565b9695505050505050565b600080600080600060a0868803121562000475578081fd5b85516001600160401b03808211156200048c578283fd5b6200049a89838a01620003ce565b96506020880151915080821115620004b0578283fd5b620004be89838a01620003ce565b95506040880151915080821115620004d4578283fd5b50620004e388828901620003ce565b606088015160809098015196999598509695949350505050565b60008151808452620005178160208601602086016200057f565b601f01601f19169290920160200192915050565b60a0815260006200054060a0830188620004fd565b8281036020840152620005548188620004fd565b905082810360408401526200056a8187620004fd565b60608401959095525050608001529392505050565b60005b838110156200059c57818101518382015260200162000582565b83811115620005ac576000848401525b50505050565b600181811c90821680620005c757607f821691505b60208210811415620005e957634e487b7160e01b600052602260045260246000fd5b50919050565b634e487b7160e01b600052604160045260246000fd5b614aea80620006156000396000f3fe6080604052600436106103f35760003560e01c806370a0823111610208578063b34c8caf11610118578063d0e30db0116100ab578063e33b7de31161007a578063e33b7de314610bfc578063e985e9c514610c11578063f2fde38b14610c5a578063f3fef3a314610c7a578063fdf8967314610c8d57600080fd5b8063d0e30db014610b96578063d684beff14610b9e578063d79779b214610bb3578063d96a094a14610be957600080fd5b8063bfcbf085116100e7578063bfcbf08514610b0b578063c4e41b2214610b2b578063c87b56dd14610b40578063ce7c2ac214610b6057600080fd5b8063b34c8caf14610a7e578063b88d4fde14610aab578063bbf85e8014610acb578063bcc1c53f14610aeb57600080fd5b80638b83209b1161019b5780639852595c1161016a5780639852595c146109c8578063a22cb465146109fe578063a260633414610a1e578063ac4b4a1014610a3e578063ae9df3d414610a5e57600080fd5b80638b83209b146109555780638c7ea24b146109755780638da5cb5b1461099557806395d89b41146109b357600080fd5b8063814a76fe116101d7578063814a76fe146108eb5780638417b47f1461090b5780638859e91f1461092b578063893d20e81461094057600080fd5b806370a0823114610883578063715018a6146108a35780637a2ad1a6146108b85780637deb6025146108d857600080fd5b80633e48d88f116103035780634c0f38c2116102965780635c975abb116102655780635c975abb1461080057806363167ced1461081a5780636352211e146108305780636a627842146108505780636f8b44b01461086357600080fd5b80634c0f38c2146107755780634f6ccce71461078a578063589a1743146107aa57806359aa03aa146107e057600080fd5b8063438ea94a116102d2578063438ea94a1461070c57806347d91e031461072c57806347e7ef241461074257806348b750441461075557600080fd5b80633e48d88f14610671578063406072a91461068657806342842e0e146106cc57806342966c68146106ec57600080fd5b806318eef3951161038657806327ec10a91161035557806327ec10a9146105c95780632a55205a146105e95780632e1a7d4d146106285780632f745c591461063b57806335db70b51461065b57600080fd5b806318eef3951461054757806318fbcdb314610574578063191655871461058957806323b872dd146105a957600080fd5b8063095ea7b3116103c2578063095ea7b3146104e55780631249c58b14610507578063172958941461051d57806318160ddd1461053257600080fd5b806301ffc9a71461044157806303ee438c1461047657806306fdde0314610498578063081812fc146104ad57600080fd5b3661043c577f6ef95f06320e7a25a04a175ca677b7052bdd97131872c2192525a629f51be77033604080516001600160a01b0390921682523460208301520160405180910390a1005b600080fd5b34801561044d57600080fd5b5061046161045c366004614636565b610cad565b60405190151581526020015b60405180910390f35b34801561048257600080fd5b5061048b610cbe565b60405161046d919061479e565b3480156104a457600080fd5b5061048b610d4c565b3480156104b957600080fd5b506104cd6104c8366004614680565b610dde565b6040516001600160a01b03909116815260200161046d565b3480156104f157600080fd5b50610505610500366004614559565b610e78565b005b61050f610f8e565b60405190815260200161046d565b34801561052957600080fd5b50600e5461050f565b34801561053e57600080fd5b5060095461050f565b34801561055357600080fd5b5061050f610562366004614680565b60009081526018602052604090205490565b34801561058057600080fd5b50601f5461050f565b34801561059557600080fd5b506105056105a43660046143bf565b61106d565b3480156105b557600080fd5b506105056105c4366004614413565b6111af565b3480156105d557600080fd5b506105056105e43660046143bf565b6111e1565b3480156105f557600080fd5b506106096106043660046146d4565b6112d5565b604080516001600160a01b03909316835260208301919091520161046d565b61050f610636366004614680565b61132a565b34801561064757600080fd5b5061050f610656366004614559565b6114d5565b34801561066757600080fd5b5061050f601d5481565b34801561067d57600080fd5b50600f5461050f565b34801561069257600080fd5b5061050f6106a136600461466e565b6001600160a01b03918216600090815260146020908152604080832093909416825291909152205490565b3480156106d857600080fd5b506105056106e7366004614413565b61156b565b3480156106f857600080fd5b50610505610707366004614680565b611586565b34801561071857600080fd5b5061050f610727366004614559565b6115dc565b34801561073857600080fd5b5061050f601f5481565b610505610750366004614559565b611694565b34801561076157600080fd5b5061050561077036600461466e565b6118df565b34801561078157600080fd5b50601c5461050f565b34801561079657600080fd5b5061050f6107a5366004614680565b611aff565b3480156107b657600080fd5b506104cd6107c5366004614680565b6000908152601760205260409020546001600160a01b031690565b3480156107ec57600080fd5b506105056107fb3660046145b1565b611ba0565b34801561080c57600080fd5b506020546104619060ff1681565b34801561082657600080fd5b5061050f601e5481565b34801561083c57600080fd5b506104cd61084b366004614680565b611eb8565b61050f61085e3660046143bf565b611f2f565b34801561086f57600080fd5b5061050561087e366004614680565b61202d565b34801561088f57600080fd5b5061050f61089e3660046143bf565b61208a565b3480156108af57600080fd5b50610505612111565b3480156108c457600080fd5b50601b546104cd906001600160a01b031681565b6104616108e63660046146b0565b612147565b3480156108f757600080fd5b506105056109063660046146d4565b612243565b34801561091757600080fd5b50610505610926366004614680565b612296565b34801561093757600080fd5b50601e5461050f565b34801561094c57600080fd5b506104cd6122f3565b34801561096157600080fd5b506104cd610970366004614680565b612307565b34801561098157600080fd5b50610505610990366004614559565b612345565b3480156109a157600080fd5b50600c546001600160a01b03166104cd565b3480156109bf57600080fd5b5061048b612426565b3480156109d457600080fd5b5061050f6109e33660046143bf565b6001600160a01b031660009081526011602052604090205490565b348015610a0a57600080fd5b50610505610a1936600461452c565b612435565b348015610a2a57600080fd5b50610505610a39366004614680565b612440565b348015610a4a57600080fd5b506019546104cd906001600160a01b031681565b348015610a6a57600080fd5b5061050f610a79366004614413565b6124da565b348015610a8a57600080fd5b5061050f610a993660046143bf565b60106020526000908152604090205481565b348015610ab757600080fd5b50610505610ac6366004614453565b612595565b348015610ad757600080fd5b50610505610ae63660046143bf565b6125cd565b348015610af757600080fd5b50601a546104cd906001600160a01b031681565b348015610b1757600080fd5b50610505610b26366004614559565b612641565b348015610b3757600080fd5b5061050f612714565b348015610b4c57600080fd5b5061048b610b5b366004614680565b61271f565b348015610b6c57600080fd5b5061050f610b7b3660046143bf565b6001600160a01b031660009081526010602052604090205490565b610505612830565b348015610baa57600080fd5b5061050561290d565b348015610bbf57600080fd5b5061050f610bce3660046143bf565b6001600160a01b031660009081526013602052604090205490565b610461610bf7366004614680565b612980565b348015610c0857600080fd5b50600d5461050f565b348015610c1d57600080fd5b50610461610c2c3660046143db565b6001600160a01b03918216600090815260056020908152604080832093909416825291909152205460ff1690565b348015610c6657600080fd5b50610505610c753660046143bf565b61298c565b61050f610c88366004614559565b612a27565b348015610c9957600080fd5b50610505610ca8366004614680565b612c09565b6000610cb882612ca3565b92915050565b60218054610ccb90614a1a565b80601f0160208091040260200160405190810160405280929190818152602001828054610cf790614a1a565b8015610d445780601f10610d1957610100808354040283529160200191610d44565b820191906000526020600020905b815481529060010190602001808311610d2757829003601f168201915b505050505081565b606060008054610d5b90614a1a565b80601f0160208091040260200160405190810160405280929190818152602001828054610d8790614a1a565b8015610dd45780601f10610da957610100808354040283529160200191610dd4565b820191906000526020600020905b815481529060010190602001808311610db757829003601f168201915b5050505050905090565b6000818152600260205260408120546001600160a01b0316610e5c5760405162461bcd60e51b815260206004820152602c60248201527f4552433732313a20617070726f76656420717565727920666f72206e6f6e657860448201526b34b9ba32b73a103a37b5b2b760a11b60648201526084015b60405180910390fd5b506000908152600460205260409020546001600160a01b031690565b6000610e8382611eb8565b9050806001600160a01b0316836001600160a01b03161415610ef15760405162461bcd60e51b815260206004820152602160248201527f4552433732313a20617070726f76616c20746f2063757272656e74206f776e656044820152603960f91b6064820152608401610e53565b336001600160a01b0382161480610f0d5750610f0d8133610c2c565b610f7f5760405162461bcd60e51b815260206004820152603860248201527f4552433732313a20617070726f76652063616c6c6572206973206e6f74206f7760448201527f6e6572206e6f7220617070726f76656420666f7220616c6c00000000000000006064820152608401610e53565b610f898383612cc8565b505050565b60205460009060ff1615610fb45760405162461bcd60e51b8152600401610e5390614894565b601d54341015610ff15760405162461bcd60e51b81526020600482015260086024820152674f463a452d30303160c01b6044820152606401610e53565b601b546001600160a01b03161561106057601b546040516335313c2160e11b81523360048201526001600160a01b0390911690636a62784290602401600060405180830381600087803b15801561104757600080fd5b505af115801561105b573d6000803e3d6000fd5b505050505b611068612d36565b905090565b6001600160a01b0381166000908152601060205260409020546110a25760405162461bcd60e51b8152600401610e5390614803565b6000600f54600e546110b491906149d7565b600d546110c19047614980565b6110cb91906149d7565b905060006110f883836110f3866001600160a01b031660009081526011602052604090205490565b612e41565b9050806111175760405162461bcd60e51b8152600401610e5390614849565b6001600160a01b0383166000908152601160205260408120805483929061113f908490614980565b9250508190555080600d60008282546111589190614980565b9091555061116890508382612e7d565b604080516001600160a01b0385168152602081018390527fdf20fd1e76bc69d672e4814fafb2c449bba3a5369d8359adf9e05e6fde87b056910160405180910390a1505050565b6111ba335b82612f96565b6111d65760405162461bcd60e51b8152600401610e539061490d565b610f89838383613089565b600c546001600160a01b0316331461120b5760405162461bcd60e51b8152600401610e53906148d8565b601b80546001600160a01b0383166001600160a01b031990911681179091556368a540c7611241600c546001600160a01b031690565b6040516001600160e01b031960e084901b1681526001600160a01b039091166004820152602401600060405180830381600087803b15801561128257600080fd5b505af1158015611296573d6000803e3d6000fd5b5050601b546040516001600160a01b0390911692507f1e22c56232a0d367cb86087b57c1fc49b4bdcff57db9930fd4bda0d0d2ad15b99150600090a250565b60408051808201909152600b546001600160a01b038116808352600160a01b90910462ffffff166020830181905290916000916127109061131690866149b8565b6113209190614998565b9150509250929050565b600081611336336111b4565b6113525760405162461bcd60e51b8152600401610e53906148b6565b6019546001600160a01b031661137a5760405162461bcd60e51b8152600401610e539061495e565b600061138584611eb8565b6019546040516321c754a560e11b8152306004820152602481018790529192506000916001600160a01b039091169063438ea94a9060440160206040518083038186803b1580156113d557600080fd5b505afa1580156113e9573d6000803e3d6000fd5b505050506040513d601f19601f8201168201806040525081019061140d9190614698565b90506114226001600160a01b03831682612e7d565b80600f60008282546114349190614980565b9091555050601954604051630e6621ff60e11b815260006004820152602481018790526001600160a01b0390911690631ccc43fe90604401600060405180830381600087803b15801561148657600080fd5b505af115801561149a573d6000803e3d6000fd5b50506040518392508791507fd2e9df57c00b23ba7ee3ed404df528700b0f0990b7292602d48fb3b9764e507690600090a39250505b50919050565b60006114e08361208a565b82106115425760405162461bcd60e51b815260206004820152602b60248201527f455243373231456e756d657261626c653a206f776e657220696e646578206f7560448201526a74206f6620626f756e647360a81b6064820152608401610e53565b506001600160a01b03919091166000908152600760209081526040808320938352929052205490565b610f8983838360405180602001604052806000815250612595565b80611590336111b4565b6115ac5760405162461bcd60e51b8152600401610e53906148b6565b60205460ff16156115cf5760405162461bcd60e51b8152600401610e5390614894565b6115d882613234565b5050565b6019546000906001600160a01b03166116075760405162461bcd60e51b8152600401610e539061495e565b6019546040516321c754a560e11b81526001600160a01b03858116600483015260248201859052600092169063438ea94a9060440160206040518083038186803b15801561165457600080fd5b505afa158015611668573d6000803e3d6000fd5b505050506040513d601f19601f8201168201806040525081019061168c9190614698565b949350505050565b604051636eb1769f60e11b81523360048201523060248201526000906001600160a01b0384169063dd62ed3e9060440160206040518083038186803b1580156116dc57600080fd5b505afa1580156116f0573d6000803e3d6000fd5b505050506040513d601f19601f820116820180604052508101906117149190614698565b9050600061172160095490565b6019549091506001600160a01b031661174c5760405162461bcd60e51b8152600401610e539061495e565b828210156117875760405162461bcd60e51b815260206004820152600860248201526713d18e914b4c0c0d60c21b6044820152606401610e53565b6040516323b872dd60e01b81526001600160a01b038516906323b872dd906117b79033903090889060040161473d565b602060405180830381600087803b1580156117d157600080fd5b505af11580156117e5573d6000803e3d6000fd5b505050506040513d601f19601f82011682018060405250810190611809919061461a565b5060195460405162f9874d60e31b81526001600160a01b0386811660048301526024820186905260448201849052909116906307cc3a6890606401600060405180830381600087803b15801561185e57600080fd5b505af1158015611872573d6000803e3d6000fd5b505050506001600160a01b0384166000908152601560205260408120805485929061189e908490614980565b909155505060405134906001600160a01b038616907f8d5b2df7eba39b5e2a616e9c89e0c253c36b92c638f32ad4f4e2bedc0ee5ba7d90600090a350505050565b6001600160a01b0381166000908152601060205260409020546119145760405162461bcd60e51b8152600401610e5390614803565b6001600160a01b038216600090815260166020908152604080832054601590925282205461194291906149d7565b6001600160a01b0384166000908152601360205260409020546040516370a0823160e01b81523060048201526001600160a01b038616906370a082319060240160206040518083038186803b15801561199a57600080fd5b505afa1580156119ae573d6000803e3d6000fd5b505050506040513d601f19601f820116820180604052508101906119d29190614698565b6119dc9190614980565b6119e691906149d7565b90506000611a1f83836110f387876001600160a01b03918216600090815260146020908152604080832093909416825291909152205490565b905080611a3e5760405162461bcd60e51b8152600401610e5390614849565b6001600160a01b03808516600090815260146020908152604080832093871683529290529081208054839290611a75908490614980565b90915550506001600160a01b03841660009081526013602052604081208054839290611aa2908490614980565b90915550611ab3905084848361323d565b604080516001600160a01b038581168252602082018490528616917f3be5b7a71e84ed12875d241991c70855ac5817d847039e17a9d895c1ceb0f18a910160405180910390a250505050565b6000611b0a60095490565b8210611b6d5760405162461bcd60e51b815260206004820152602c60248201527f455243373231456e756d657261626c653a20676c6f62616c20696e646578206f60448201526b7574206f6620626f756e647360a01b6064820152608401610e53565b60098281548110611b8e57634e487b7160e01b600052603260045260246000fd5b90600052602060002001549050919050565b828114611c0a5760405162461bcd60e51b815260206004820152603260248201527f5061796d656e7453706c69747465723a2070617965657320616e6420736861726044820152710cae640d8cadccee8d040dad2e6dac2e8c6d60731b6064820152608401610e53565b82611c575760405162461bcd60e51b815260206004820152601a60248201527f5061796d656e7453706c69747465723a206e6f207061796565730000000000006044820152606401610e53565b60005b83811015611eb157828282818110611c8257634e487b7160e01b600052603260045260246000fd5b9050602002013560106000336001600160a01b03166001600160a01b03168152602001908152602001600020541015611d25576040805162461bcd60e51b81526020600482015260248101919091527f5061796d656e7453706c69747465723a206163636f756e7420646f6573206e6f60448201527f74206861766520656e6f7567682073686172657320746f20616c6c6f636174656064820152608401610e53565b828282818110611d4557634e487b7160e01b600052603260045260246000fd5b33600090815260106020908152604090912054611d699491909202013591506149d7565b3360009081526010602081905260408220929092559081878785818110611da057634e487b7160e01b600052603260045260246000fd5b9050602002016020810190611db591906143bf565b6001600160a01b03166001600160a01b03168152602001908152602001600020541115611e4557611e40858583818110611dff57634e487b7160e01b600052603260045260246000fd5b9050602002016020810190611e1491906143bf565b848484818110611e3457634e487b7160e01b600052603260045260246000fd5b9050602002013561328f565b611ea9565b611ea9858583818110611e6857634e487b7160e01b600052603260045260246000fd5b9050602002016020810190611e7d91906143bf565b848484818110611e9d57634e487b7160e01b600052603260045260246000fd5b9050602002013561330c565b600101611c5a565b5050505050565b6000818152600260205260408120546001600160a01b031680610cb85760405162461bcd60e51b815260206004820152602960248201527f4552433732313a206f776e657220717565727920666f72206e6f6e657869737460448201526832b73a103a37b5b2b760b91b6064820152608401610e53565b60205460009060ff1615611f555760405162461bcd60e51b8152600401610e5390614894565b601d54341015611f925760405162461bcd60e51b81526020600482015260086024820152674f463a452d30303160c01b6044820152606401610e53565b601e5415612025576000611fa8601e54346134d1565b9050611fbd6001600160a01b03841682612e7d565b604051667072696d61727960c81b81526001600160a01b0384169060070160405180910390207f522c39d7156b7dd9419c7853d069ac52655fb23c5ec017f319477ad7bef213aa61200d60095490565b604080519182523460208301520160405180910390a3505b610cb8612d36565b600c546001600160a01b031633146120575760405162461bcd60e51b8152600401610e53906148d8565b601c81905560405181907facc639f1ff310faf48650d02a82bd24c924e45a5050fc931245096ac57c309d990600090a250565b60006001600160a01b0382166120f55760405162461bcd60e51b815260206004820152602a60248201527f4552433732313a2062616c616e636520717565727920666f7220746865207a65604482015269726f206164647265737360b01b6064820152608401610e53565b506001600160a01b031660009081526003602052604090205490565b600c546001600160a01b0316331461213b5760405162461bcd60e51b8152600401610e53906148d8565b61214560006134e9565b565b60006001600160a01b03821661218a5760405162461bcd60e51b815260206004820152600860248201526727a31d229698181960c11b6044820152606401610e53565b600083815260186020526040812054601f549091906121a990836134d1565b601f5490915015612227576121c76001600160a01b03851682612e7d565b604051687365636f6e6461727960b81b81526001600160a01b0385169060090160408051918290038220888352346020840152917f522c39d7156b7dd9419c7853d069ac52655fb23c5ec017f319477ad7bef213aa910160405180910390a35b61223a85612235348461353b565b613547565b95945050505050565b60205460ff16156122665760405162461bcd60e51b8152600401610e5390614894565b81612270336111b4565b61228c5760405162461bcd60e51b8152600401610e53906148b6565b610f898383613763565b600c546001600160a01b031633146122c05760405162461bcd60e51b8152600401610e53906148d8565b601d81905560405181907f02dd4e125a287edc7a6a887552dc7be35f4fdabe8afd6ae78f98b448d4e1a86690600090a250565b6000611068600c546001600160a01b031690565b60006012828154811061232a57634e487b7160e01b600052603260045260246000fd5b6000918252602090912001546001600160a01b031692915050565b600c546001600160a01b0316331461236f5760405162461bcd60e51b8152600401610e53906148d8565b600081116123aa5760405162461bcd60e51b815260206004820152600860248201526713d18e914b4c0c0d60c21b6044820152606401610e53565b6001600160a01b0382166123eb5760405162461bcd60e51b81526020600482015260086024820152674f463a452d30303560c01b6044820152606401610e53565b6123f582826137b4565b604051819030907f908669f35f6fb3977a956ba70597841fe541d1e8491ca3c025161e258d3bfdb690600090a35050565b606060018054610d5b90614a1a565b6115d8338383613850565b600c546001600160a01b0316331461246a5760405162461bcd60e51b8152600401610e53906148d8565b6127108111156124a75760405162461bcd60e51b815260206004820152600860248201526727a31d229698181b60c11b6044820152606401610e53565b601f81905560405181907f905c2604b04c9fa2b09e05ab34ccae93abf21f5edd19a139c406fe9398f752a090600090a250565b6019546000906001600160a01b03166125055760405162461bcd60e51b8152600401610e539061495e565b601954604051632ba77cf560e21b81526000916001600160a01b03169063ae9df3d49061253a9088908890889060040161473d565b60206040518083038186803b15801561255257600080fd5b505afa158015612566573d6000803e3d6000fd5b505050506040513d601f19601f8201168201806040525081019061258a9190614698565b9150505b9392505050565b61259f3383612f96565b6125bb5760405162461bcd60e51b8152600401610e539061490d565b6125c78484848461391f565b50505050565b600c546001600160a01b031633146125f75760405162461bcd60e51b8152600401610e53906148d8565b601a80546001600160a01b0319166001600160a01b0383169081179091556040517f5db3fb7335b6ec1dfcfd94d09bc1904829d1b8fdba0dc0ad6ee68d71650652ae90600090a250565b600c546001600160a01b0316331461266b5760405162461bcd60e51b8152600401610e53906148d8565b601980546001600160a01b0319166001600160a01b038416908117909155604051630e26c4ed60e01b815260048101839052630e26c4ed90602401600060405180830381600087803b1580156126c057600080fd5b505af11580156126d4573d6000803e3d6000fd5b50506019546040516001600160a01b0390911692507f7947799a5d3281fff4a4457606b1aaa700d7ddecbe5b6143ff45b6c9866a8cc29150600090a25050565b600061106860095490565b6000818152600260205260409020546060906001600160a01b031661279e5760405162461bcd60e51b815260206004820152602f60248201527f4552433732314d657461646174613a2055524920717565727920666f72206e6f60448201526e3732bc34b9ba32b73a103a37b5b2b760891b6064820152608401610e53565b602180546127ab90614a1a565b80601f01602080910402602001604051908101604052809291908181526020018280546127d790614a1a565b80156128245780601f106127f957610100808354040283529160200191612824565b820191906000526020600020905b81548152906001019060200180831161280757829003601f168201915b50505050509050919050565b6019546001600160a01b03166128585760405162461bcd60e51b8152600401610e539061495e565b600061286360095490565b60195460405163a64271f160e01b8152346004820152602481018390529192506001600160a01b03169063a64271f190604401600060405180830381600087803b1580156128b057600080fd5b505af11580156128c4573d6000803e3d6000fd5b5050505034600e60008282546128da9190614980565b909155505060405134907f3903d05344bfbe173a5084aa4d3a99187eff3f7bfb3db786c814e7eddd9b3cd590600090a250565b600c546001600160a01b031633146129375760405162461bcd60e51b8152600401610e53906148d8565b6020805460ff8082161560ff199092168217835560405191161581527fa9bfed3d98385b3777389e321dbde773cf7d335fa604fefbae3dca93564f5586910160405180910390a1565b6000610cb88234613547565b600c546001600160a01b031633146129b65760405162461bcd60e51b8152600401610e53906148d8565b6001600160a01b038116612a1b5760405162461bcd60e51b815260206004820152602660248201527f4f776e61626c653a206e6577206f776e657220697320746865207a65726f206160448201526564647265737360d01b6064820152608401610e53565b612a24816134e9565b50565b600081612a33336111b4565b612a4f5760405162461bcd60e51b8152600401610e53906148b6565b6019546001600160a01b0316612a775760405162461bcd60e51b8152600401610e539061495e565b6000612a8284611eb8565b601954604051632ba77cf560e21b81529192506000916001600160a01b039091169063ae9df3d490612abc90899030908a9060040161473d565b60206040518083038186803b158015612ad457600080fd5b505afa158015612ae8573d6000803e3d6000fd5b505050506040513d601f19601f82011682018060405250810190612b0c9190614698565b6001600160a01b038716600090815260166020526040812080549293508392909190612b39908490614980565b909155505060195460405163fdb047b160e01b81526001600160a01b03888116600483015260006024830152604482018890529091169063fdb047b190606401600060405180830381600087803b158015612b9357600080fd5b505af1158015612ba7573d6000803e3d6000fd5b50612bc0925050506001600160a01b038716838361323d565b6040516001600160a01b0387168152819086907f12ff21bbdebdfd7045c78e9aa73dc7777831b172e9097bc41bedd40f841c0afd9060200160405180910390a395945050505050565b600c546001600160a01b03163314612c335760405162461bcd60e51b8152600401610e53906148d8565b612710811115612c705760405162461bcd60e51b815260206004820152600860248201526727a31d229698181b60c11b6044820152606401610e53565b601e81905560405181907fb27a19d53c022a09a344f42378e7d232d66b643564218cbfc93c98c93a2bc7af90600090a250565b60006001600160e01b0319821663780e9d6360e01b1480610cb85750610cb882613952565b600081815260046020526040902080546001600160a01b0319166001600160a01b0384169081179091558190612cfd82611eb8565b6001600160a01b03167f8c5be1e5ebec7d5bd14f71427d1e84f3dd0314c0f7b2291e5b200ac8c7c3b92560405160405180910390a45050565b6000612d4160095490565b9050612d5d3382604051806020016040528060008152506139a2565b600081815260176020526040902080546001600160a01b0319163317905560218054612e11918391612d8e90614a1a565b80601f0160208091040260200160405190810160405280929190818152602001828054612dba90614a1a565b8015612e075780601f10612ddc57610100808354040283529160200191612e07565b820191906000526020600020905b815481529060010190602001808311612dea57829003601f168201915b50505050506139d5565b604051339082907fb9203d657e9c0ec8274c818292ab0f58b04e1970050716891770eb1bab5d655e90600090a390565b6001600160a01b0383166000908152601060205260408120548290606490612e6990866149b8565b612e739190614998565b61168c91906149d7565b80471015612ecd5760405162461bcd60e51b815260206004820152601d60248201527f416464726573733a20696e73756666696369656e742062616c616e63650000006044820152606401610e53565b6000826001600160a01b03168260405160006040518083038185875af1925050503d8060008114612f1a576040519150601f19603f3d011682016040523d82523d6000602084013e612f1f565b606091505b5050905080610f895760405162461bcd60e51b815260206004820152603a60248201527f416464726573733a20756e61626c6520746f2073656e642076616c75652c207260448201527f6563697069656e74206d617920686176652072657665727465640000000000006064820152608401610e53565b6000818152600260205260408120546001600160a01b031661300f5760405162461bcd60e51b815260206004820152602c60248201527f4552433732313a206f70657261746f7220717565727920666f72206e6f6e657860448201526b34b9ba32b73a103a37b5b2b760a11b6064820152608401610e53565b600061301a83611eb8565b9050806001600160a01b0316846001600160a01b031614806130555750836001600160a01b031661304a84610dde565b6001600160a01b0316145b8061168c57506001600160a01b0380821660009081526005602090815260408083209388168352929052205460ff1661168c565b826001600160a01b031661309c82611eb8565b6001600160a01b0316146131045760405162461bcd60e51b815260206004820152602960248201527f4552433732313a207472616e73666572206f6620746f6b656e2074686174206960448201526839903737ba1037bbb760b91b6064820152608401610e53565b6001600160a01b0382166131665760405162461bcd60e51b8152602060048201526024808201527f4552433732313a207472616e7366657220746f20746865207a65726f206164646044820152637265737360e01b6064820152608401610e53565b613171838383613a6f565b61317c600082612cc8565b6001600160a01b03831660009081526003602052604081208054600192906131a59084906149d7565b90915550506001600160a01b03821660009081526003602052604081208054600192906131d3908490614980565b909155505060008181526002602052604080822080546001600160a01b0319166001600160a01b0386811691821790925591518493918716917fddf252ad1be2c89b69c2b068fc378daa952ba7f163c4a11628f55a4df523b3ef91a4505050565b612a2481613a7a565b604080516001600160a01b038416602482015260448082018490528251808303909101815260649091019091526020810180516001600160e01b031663a9059cbb60e01b179052610f89908490613aba565b6001600160a01b0382166000908152601060205260409020546132b3908290614980565b6001600160a01b03831660009081526010602052604090819020829055517fc2d736f9586f32c486adaf582e13ff65987fa49ed8336300b2cd723324ed7f8191613300913391869161473d565b60405180910390a15050565b6001600160a01b0382166133775760405162461bcd60e51b815260206004820152602c60248201527f5061796d656e7453706c69747465723a206163636f756e74206973207468652060448201526b7a65726f206164647265737360a01b6064820152608401610e53565b600081116133c75760405162461bcd60e51b815260206004820152601d60248201527f5061796d656e7453706c69747465723a207368617265732061726520300000006044820152606401610e53565b6001600160a01b038216600090815260106020526040902054156134415760405162461bcd60e51b815260206004820152602b60248201527f5061796d656e7453706c69747465723a206163636f756e7420616c726561647960448201526a206861732073686172657360a81b6064820152608401610e53565b60128054600181019091557fbb8a6a4669ba250d26cd7a459eca9d215f8307e33aebe50379bc5a3617ec34440180546001600160a01b0319166001600160a01b038416908117909155600081815260106020908152604091829020849055815192835282018390527f40c340f65e17194d14ddddb073d3c9f888e3cb52b5aae0c6c7706b4fbc905fac9101613300565b600061258e6127106134e38486613b8c565b90613b98565b600c80546001600160a01b038381166001600160a01b0319831681179093556040519116919082907f8be0079c531659141344cd1fd0a4f28419497f9722a3daafe3b4186f6b6457e090600090a35050565b600061258e82846149d7565b6000828152601860205260408120548061358e5760405162461bcd60e51b81526020600482015260086024820152674f463a452d30303760c01b6044820152606401610e53565b808310156135c95760405162461bcd60e51b815260206004820152600860248201526709e8c748a5a6060760c31b6044820152606401610e53565b60006135d485611eb8565b905060003360405163152a902d60e11b81526000600482018190526024820186905291925081903090632a55205a90604401604080518083038186803b15801561361d57600080fd5b505afa158015613631573d6000803e3d6000fd5b505050506040513d601f19601f820116820180604052508101906136559190614584565b601a5491935091506001600160a01b03161561368657601a54613681906001600160a01b031682612e7d565b6136d6565b80156136d65761369f6001600160a01b03831682612e7d565b60405181906001600160a01b038416907fbc86de696edc3350c664d50abf25f24e7e1251f1469ad925b25fe36927270d4390600090a35b6136f36136e3868361353b565b6001600160a01b03861690612e7d565b826001600160a01b0316846001600160a01b0316897f23f50d55776d8003622a982ade45a6c7f083116c8dbbcd980f59942f440badb18860405161373991815260200190565b60405180910390a461374a85613ba4565b61375584848a613089565b506001979650505050505050565b600082815260186020526040908190208290555182907fe23ea816dce6d7f5c0b85cbd597e7c3b97b2453791152c0b94e5e5c5f314d2f0906137a89084815260200190565b60405180910390a25050565b6127108111156138065760405162461bcd60e51b815260206004820152601a60248201527f45524332393831526f79616c746965733a20546f6f20686967680000000000006044820152606401610e53565b604080518082019091526001600160a01b0390921680835262ffffff9091166020909201829052600b8054600160a01b9093026001600160b81b0319909316909117919091179055565b816001600160a01b0316836001600160a01b031614156138b25760405162461bcd60e51b815260206004820152601960248201527f4552433732313a20617070726f766520746f2063616c6c6572000000000000006044820152606401610e53565b6001600160a01b03838116600081815260056020908152604080832094871680845294825291829020805460ff191686151590811790915591519182527f17307eab39ab6107e8899845ad3d59bd9653f200f220920489ca2b5937696c31910160405180910390a3505050565b61392a848484613089565b61393684848484613bc2565b6125c75760405162461bcd60e51b8152600401610e53906147b1565b60006001600160e01b031982166380ac58cd60e01b148061398357506001600160e01b03198216635b5e139f60e01b145b80610cb857506301ffc9a760e01b6001600160e01b0319831614610cb8565b6139ac8383613ccf565b6139b96000848484613bc2565b610f895760405162461bcd60e51b8152600401610e53906147b1565b6000828152600260205260409020546001600160a01b0316613a505760405162461bcd60e51b815260206004820152602e60248201527f45524337323155524953746f726167653a2055524920736574206f66206e6f6e60448201526d32bc34b9ba32b73a103a37b5b2b760911b6064820152608401610e53565b60008281526006602090815260409091208251610f89928401906142a6565b610f89838383613e1d565b613a8381613ed5565b60008181526006602052604090208054613a9c90614a1a565b159050612a24576000818152600660205260408120612a249161432a565b6000613b0f826040518060400160405280602081526020017f5361666545524332303a206c6f772d6c6576656c2063616c6c206661696c6564815250856001600160a01b0316613f7c9092919063ffffffff16565b805190915015610f895780806020019051810190613b2d919061461a565b610f895760405162461bcd60e51b815260206004820152602a60248201527f5361666545524332303a204552433230206f7065726174696f6e20646964206e6044820152691bdd081cdd58d8d9595960b21b6064820152608401610e53565b600061258e82846149b8565b600061258e8284614998565b6000613bb0348361353b565b905080156115d8576115d83382612e7d565b60006001600160a01b0384163b15613cc457604051630a85bd0160e11b81526001600160a01b0385169063150b7a0290613c06903390899088908890600401614761565b602060405180830381600087803b158015613c2057600080fd5b505af1925050508015613c50575060408051601f3d908101601f19168201909252613c4d91810190614652565b60015b613caa573d808015613c7e576040519150601f19603f3d011682016040523d82523d6000602084013e613c83565b606091505b508051613ca25760405162461bcd60e51b8152600401610e53906147b1565b805181602001fd5b6001600160e01b031916630a85bd0160e11b14905061168c565b506001949350505050565b6001600160a01b038216613d255760405162461bcd60e51b815260206004820181905260248201527f4552433732313a206d696e7420746f20746865207a65726f20616464726573736044820152606401610e53565b6000818152600260205260409020546001600160a01b031615613d8a5760405162461bcd60e51b815260206004820152601c60248201527f4552433732313a20746f6b656e20616c7265616479206d696e746564000000006044820152606401610e53565b613d9660008383613a6f565b6001600160a01b0382166000908152600360205260408120805460019290613dbf908490614980565b909155505060008181526002602052604080822080546001600160a01b0319166001600160a01b03861690811790915590518392907fddf252ad1be2c89b69c2b068fc378daa952ba7f163c4a11628f55a4df523b3ef908290a45050565b6001600160a01b038316613e7857613e7381600980546000838152600a60205260408120829055600182018355919091527f6e1540171b6c0c960b71a7020d9f60077f6af931a8bbf590da0223dacf75c7af0155565b613e9b565b816001600160a01b0316836001600160a01b031614613e9b57613e9b8382613f8b565b6001600160a01b038216613eb257610f8981614028565b826001600160a01b0316826001600160a01b031614610f8957610f898282614101565b6000613ee082611eb8565b9050613eee81600084613a6f565b613ef9600083612cc8565b6001600160a01b0381166000908152600360205260408120805460019290613f229084906149d7565b909155505060008281526002602052604080822080546001600160a01b0319169055518391906001600160a01b038416907fddf252ad1be2c89b69c2b068fc378daa952ba7f163c4a11628f55a4df523b3ef908390a45050565b606061168c8484600085614145565b60006001613f988461208a565b613fa291906149d7565b600083815260086020526040902054909150808214613ff5576001600160a01b03841660009081526007602090815260408083208584528252808320548484528184208190558352600890915290208190555b5060009182526008602090815260408084208490556001600160a01b039094168352600781528383209183525290812055565b60095460009061403a906001906149d7565b6000838152600a60205260408120546009805493945090928490811061407057634e487b7160e01b600052603260045260246000fd5b90600052602060002001549050806009838154811061409f57634e487b7160e01b600052603260045260246000fd5b6000918252602080832090910192909255828152600a909152604080822084905585825281205560098054806140e557634e487b7160e01b600052603160045260246000fd5b6001900381819060005260206000200160009055905550505050565b600061410c8361208a565b6001600160a01b039093166000908152600760209081526040808320868452825280832085905593825260089052919091209190915550565b6060824710156141a65760405162461bcd60e51b815260206004820152602660248201527f416464726573733a20696e73756666696369656e742062616c616e636520666f6044820152651c8818d85b1b60d21b6064820152608401610e53565b843b6141f45760405162461bcd60e51b815260206004820152601d60248201527f416464726573733a2063616c6c20746f206e6f6e2d636f6e74726163740000006044820152606401610e53565b600080866001600160a01b031685876040516142109190614721565b60006040518083038185875af1925050503d806000811461424d576040519150601f19603f3d011682016040523d82523d6000602084013e614252565b606091505b509150915061426282828661426d565b979650505050505050565b6060831561427c57508161258e565b82511561428c5782518084602001fd5b8160405162461bcd60e51b8152600401610e53919061479e565b8280546142b290614a1a565b90600052602060002090601f0160209004810192826142d4576000855561431a565b82601f106142ed57805160ff191683800117855561431a565b8280016001018555821561431a579182015b8281111561431a5782518255916020019190600101906142ff565b50614326929150614360565b5090565b50805461433690614a1a565b6000825580601f10614346575050565b601f016020900490600052602060002090810190612a2491905b5b808211156143265760008155600101614361565b60008083601f840112614386578182fd5b50813567ffffffffffffffff81111561439d578182fd5b6020830191508360208260051b85010111156143b857600080fd5b9250929050565b6000602082840312156143d0578081fd5b813561258e81614a7b565b600080604083850312156143ed578081fd5b82356143f881614a7b565b9150602083013561440881614a7b565b809150509250929050565b600080600060608486031215614427578081fd5b833561443281614a7b565b9250602084013561444281614a7b565b929592945050506040919091013590565b60008060008060808587031215614468578081fd5b843561447381614a7b565b9350602085013561448381614a7b565b925060408501359150606085013567ffffffffffffffff808211156144a6578283fd5b818701915087601f8301126144b9578283fd5b8135818111156144cb576144cb614a65565b604051601f8201601f19908116603f011681019083821181831017156144f3576144f3614a65565b816040528281528a602084870101111561450b578586fd5b82602086016020830137918201602001949094529598949750929550505050565b6000806040838503121561453e578182fd5b823561454981614a7b565b9150602083013561440881614a90565b6000806040838503121561456b578182fd5b823561457681614a7b565b946020939093013593505050565b60008060408385031215614596578182fd5b82516145a181614a7b565b6020939093015192949293505050565b600080600080604085870312156145c6578384fd5b843567ffffffffffffffff808211156145dd578586fd5b6145e988838901614375565b90965094506020870135915080821115614601578384fd5b5061460e87828801614375565b95989497509550505050565b60006020828403121561462b578081fd5b815161258e81614a90565b600060208284031215614647578081fd5b813561258e81614a9e565b600060208284031215614663578081fd5b815161258e81614a9e565b600080604083850312156143ed578182fd5b600060208284031215614691578081fd5b5035919050565b6000602082840312156146a9578081fd5b5051919050565b600080604083850312156146c2578182fd5b82359150602083013561440881614a7b565b600080604083850312156146e6578182fd5b50508035926020909101359150565b6000815180845261470d8160208601602086016149ee565b601f01601f19169290920160200192915050565b600082516147338184602087016149ee565b9190910192915050565b6001600160a01b039384168152919092166020820152604081019190915260600190565b6001600160a01b0385811682528416602082015260408101839052608060608201819052600090614794908301846146f5565b9695505050505050565b60208152600061258e60208301846146f5565b60208082526032908201527f4552433732313a207472616e7366657220746f206e6f6e20455243373231526560408201527131b2b4bb32b91034b6b83632b6b2b73a32b960711b606082015260800190565b60208082526026908201527f5061796d656e7453706c69747465723a206163636f756e7420686173206e6f2060408201526573686172657360d01b606082015260800190565b6020808252602b908201527f5061796d656e7453706c69747465723a206163636f756e74206973206e6f742060408201526a191d59481c185e5b595b9d60aa1b606082015260800190565b6020808252600890820152674f463a452d30303960c01b604082015260600190565b60208082526008908201526704f463a452d3031360c41b604082015260600190565b6020808252818101527f4f776e61626c653a2063616c6c6572206973206e6f7420746865206f776e6572604082015260600190565b60208082526031908201527f4552433732313a207472616e736665722063616c6c6572206973206e6f74206f6040820152701ddb995c881b9bdc88185c1c1c9bdd9959607a1b606082015260800190565b6020808252600890820152674f463a452d30303360c01b604082015260600190565b6000821982111561499357614993614a4f565b500190565b6000826149b357634e487b7160e01b81526012600452602481fd5b500490565b60008160001904831182151516156149d2576149d2614a4f565b500290565b6000828210156149e9576149e9614a4f565b500390565b60005b83811015614a095781810151838201526020016149f1565b838111156125c75750506000910152565b600181811c90821680614a2e57607f821691505b602082108114156114cf57634e487b7160e01b600052602260045260246000fd5b634e487b7160e01b600052601160045260246000fd5b634e487b7160e01b600052604160045260246000fd5b6001600160a01b0381168114612a2457600080fd5b8015158114612a2457600080fd5b6001600160e01b031981168114612a2457600080fdfea264697066735822122055181dd4b108f9d63afffb7d8b0dd5af90ae843916a189114a1948e1de5057a164736f6c63430008040033",
  "linkReferences": {},
  "deployedLinkReferences": {}
}